:020000040000FA
:06000000021700020A369F
:03001300020AF2EC
:03002B0002147745
:03003300020C803C
:03003B00020B476E
:03004B0002138B12
:0300530002096B34
:03005B000211E3AC
:0300630002120482
:03006B00020C265E
:03007B00020C571D
:100083000209CA010020FD000201FC050000000175
:10009300221E341E00003A1E401E00000000461EB1
:1000A3005E1E641E6A1E00000000000000000102C4
:1000B3000408102040801801FF0D01010401FEFF18
:1000C300000000000000000612FFFFFFFFFFFFFF1C
:1000D30001010104007015000000E8030000FFFFA8
:1000E300C415E803000064006400B801A0BB0D0060
:1000F300A0BB0D00020200F8FF0705021E04010564
:100103001E02051E020A0A010108080310270280C5
:100113003E0102FEFFE8030A050001FFFF020A1485
:1001230001E002000000C503423F1A51123FF304ED
:10013300B53F0000803EFFFFFF0005030101FFBA4A
:1001430039000000008E3800000000FF000000FFAF
:1001530000C082C083E9FA5407F8745E28F582E48C
:100163003418F583E0F87900EA1202F960081460A4
:100173000914600D8012E5808002E59058700780B5
:1001830007E5A05860027901020261C082C08312B0
:100193000392600814601214601C802BEA6005EB64
:1001A30042808023E85280801EEA6005EB42908003
:1001B30016E852908011EBC39420500BEA6005EBD4
:1001C30042A08003E852A0020261C082C0831202EF
:1001D300FF70030202611202F8600814602C1460BD
:1001E30050807BE852F374016A601274026A6015EE
:1001F30074046A7003EB428FEB42FD806153F7DFB7
:10020300E8528F80F343F72080F6E852F474016AD2
:10021300601274026A601574046A7003EB42F6EBB1
:1002230042FE803A53F7BFE852F680F343F740802B
:10023300F6EBC394205027E852F574016A601274F8
:10024300026A601574046A7003EB42F7EB42FF80A5
:100253000D53F77FE852F780F343F78080F6D0839E
:10026300D08222C082C0831202FF60791202F8603A
:100273000814602B14604E806CE852F352FD740135
:100283006A600F74026A600F74046A7058EB428FDD
:10029300805353F7DF800343F720E8528F8046E80B
:1002A30052F452FE74016A600F74026A600F7404A0
:1002B3006A7032EB42F6802D53F7BF800343F74059
:1002C300E852F68020EBC39420501AE844E0F85239
:1002D300F552FF74016A601074026A601374046A51
:1002E3007003EB42F702026153F77FE852F780F5A0
:1002F30043F78080F6E9C4540F54032212039CEBA6
:1003030022C082C0831202FF603A1202F86008140E
:10031300601214601C802DEA6005EB42FD8025E825
:1003230052FD8020EA6005EB42FE8018E852FE8011
:1003330013EBC39420500DEA6005EB42FF80057474
:10034300E04852FF020261C082C083120392600838
:100353001460151460228034EA6005EB4280800348
:10036300E85280EB42FD8024EA6005EB4290800373
:10037300E85290EB42FE8014EBC39420500EEA60E7
:1003830005EB42A08003E852A0EB42FF0202611298
:10039300039CE9C4540F540322E95407FC745E2CF4
:1003A300F582E43418F583E0FBF4F8221202F860D6
:1003B30007146013146020227801E8F4FBEA60203C
:1003C30014602114601522740F59C39404500478E7
:1003D3000280E7780480E3780880DFE58C586004C6
:1003E300EB528C22E8428C22121710601D12171F49
:1003F3007005191919801A121579701F1215A1C3E6
:100403007003E667331919194007181818220808EA
:100413000874FFF618F618F618F6221215A16017DD
:100423001217C5702192F01217CE7019501720F0D1
:1004330014080808090909E7F61819E7F61819E76F
:10044300F61819E7F6221217CE60E6E869701F085E
:1004530008E62480F608E436F618547FB47F0CE6E9
:1004630054806007F6E418F618F622181822E9C635
:10047300CC08C6CD08C6CE08C6CFC0E0E8C0E0EAC7
:10048300C0E0EBC0E009E9F809E7FA09E7FBE6F9A0
:1004930018E6F8C3EC98ED99EE9AEBC2E7F5F0EFA6
:1004A300C2E795F0500E600CEBCFFBEACEFAE9CD34
:1004B300F9E8CCF8EAA2E7D2E7FAEB33FB13F5F05D
:1004C300EEA2E7D2E7FEEF33FFC5F013A2E730E673
:1004D30001B313C5F0C3C0E0C0F07F00C39BFB6052
:1004E3005E9418600F401D14601AD0E023F9D0E029
:1004F300F80205CC8AF0E9486003D2F0E4AFF0FAE1
:10050300F9F8803BEB30E40D89F0EA6003D2F0E4C4
:10051300AFF0F9CAF8EB30E30D88F0EF6002D2F0E8
:10052300AFF0E4CAC9F8EB54076014FBC3EA13FA4B
:10053300E913F9E813F8EF135002D2E0FFDBEDD033
:10054300E0C0E030E739C3E49FFFF5F0EC98FC42EC
:10055300F0ED99FD42F0EE9AFE42F0D0E0F9D0E0E2
:10056300F8E5F0607AE923F9EE20E742D8028067E4
:10057300C3EF33FFEC33FCED33FDEE33FE80EAECE7
:1005830028FCED39FDEE3AFED0E023F9D0E0F84047
:1005930002801BC3EE13FEED13FDEC13FCEF1350AF
:1005A30002D2E0FF08B800067F7F74FF802EEF338E
:1005B30050178CF020F00260100CBC000C0DBD0035
:1005C300080EBE000408E860DFE933E813FFEE23FA
:1005D30013FE4F4D4C8008E95480FFE4FEFDFCEE12
:1005E30033EF33F47004FCFD7E80D0E0FBD0E0FAFF
:1005F300D0E0F8D0E0CFC618CEC618CDC618CCC60A
:10060300F92212171070041818182212171F700DF0
:1006130074FFF61819F61819F61819F622E754801C
:1006230066F61217CE700F1217C570F014F608F69F
:1006330008F608F680D11217C5700CF608F608768E
:100643008008E6447F80EC1215A4700C12157C60C0
:10065300BFE65480F6E480BB12157C7005191919A6
:1006630080A5E869700C763F18768018F618F6E8CE
:10067300F922E6CDC0E018ECC0E0E633CD33CDD3AC
:1006830013F6E719FCE7191933CC33C3947F400EF3
:10069300CD9D502408E65480F6E418F6800FF40448
:1006A3003D14501408E6447FF6187680E418F618D3
:1006B300F6D0E0FCD0E0FD22CCD313CCFD18E4C689
:1006C300CBC0E018E4C6CAC0E00808ED08C633E6AC
:1006D30013F618E433C675F003C3CA97CA09CB9758
:1006E300CB199C40047D08802EBD00030207AE1683
:1006F300B6FF050606081618C3CA33CACB33CB3375
:10070300CA27CA09CB37CB193CC37D08803E187D65
:100713000820E75CC633C6CA33CACB33CB33DDF11B
:10072300D5F0EB30E77BCA97CA09CB974ACB199C24
:10073300406F4B7025E620E0218066187D08C3CA10
:1007430097CA09CB97CB199CD3C633C6CA33CACB36
:1007530033CB3350C9DDE7D5F0E1D3E4C636C60861
:10076300C636C608C636C608C636C6181818803137
:10077300C3CA97CA09CB97CB199CB34097C633C654
:10078300CA33CACB33CB33DD34D5F02EC6A2E0C691
:1007930040C8CA27CA09CB37194A70BECB3CB480BC
:1007A300B90808E63308E633601F181818D0E0FAD2
:1007B300D0E0FBD0E0FCD0E0FD22187D08CA27CAB8
:1007C30009CB37CB193CD3808013F618E4B67F11DD
:1007D300F618B6FF0EF618C60470D20808768080A5
:1007E300CAF618F618F680C500121710604F1217D4
:1007F3001F6012E7548066F612157970111217C53F
:10080300703B090909F4F618F618F618F6221215C2
:10081300A170151217CE08080860EAE6447FF6189F
:10082300768018E4F618F6221217CE60161217C552
:100833007012E4F608F608F608E65480F60909098A
:1008430018181822EAC0E0EBC0E0ECC0E0EDC0E00D
:10085300E687F0A4FBACF008E687F0A42CFCE435B3
:10086300F0FA1809E687F0A42C4B60027401CA352C
:10087300F0FCE433FB09E687F0D2F7A42CCB35F088
:10088300FC1908E687F0A42BCC35F0FBE433FD0814
:1008930019E687F0D2E7A42C4ACB35F0CD3400FC1F
:1008A30009E687F0D2E7A42DCC35F0FDE433FA094D
:1008B30018E687F0D2F7A42CCD35F0CA3400FC0833
:1008C300E687F0D2E7D2F7A42ACC35F07A7E20E788
:1008D3000B0ACB33CBCD33CDCC33CC33CB3350140A
:1008E3007004ED30E00ED2F1E4CD3DCDCC3CCC3BF9
:1008F3005005DA05C2F1EB547FC63308E63392F0B4
:10090300FBE73309E733C39A502D2B70190C0D4CB9
:100913004D70151806E608C333700D20F10AA2F0D6
:1009230013F6E418800B4024E4F630F002768018C6
:10093300F618F618F68024D33B14501074FFA2F077
:1009430013F6187680E418F618F6800FA2F013F663
:1009530018E63303F618ECF618EDF6D0E0FDD0E018
:10096300FCD0E0FBD0E0FA22C0E074F1120E7CA2CE
:10097300AFE433F509D2AF85A708AFA1EF5508FE61
:1009830074105E6006121B1C75A1EF74085E60088C
:10099300121B2275A1F78024EFA2E092F0E508A2D2
:1009A300E082F05017906198E0F890056CE0C398EE
:1009B300A2D265D0335002E8F075A1FEE509A2E0AA
:1009C30092AF7F02020EDBC0E074F2120E7CA2AF84
:1009D300E433FED2AF9061A4E0F8759B00E5915833
:1009E300540860087591F7121B6A8023E5915854E7
:1009F3001060087591EF121B708014E591A2E092CC
:100A0300F0E8A2E082F05007E0C2E0F0121CBA90D6
:100A130061A3E0F8E5E9585404600E121C9075E9EF
:100A2300FB906193E0A2E640F2EEA2E092AF7F0179
:100A3300020EDBC0E074F2120E7CA2AFE433FED2EE
:100A4300AF9061A5E0F8E5BF585404600675BFFB9D
:100A5300121CD280D4C3E498F8E499F9120A99805D
:100A630026C3E49AFAE49BFBE920E7E9120A99E436
:100A730098F8E499F922C3E498F8E499F9120A99E9
:100A8300E498F8E499F9C3E49AFAE49BFB22EB2097
:100A9300E7CFE920E7E0B90010BB0008E88AF0845B
:100AA300F8AAF022E4FBC8FA22EB70227B10C833C9
:100AB300C8C933C9335007C39AC3DBF280069A50BF
:100AC300012ADBEAC833F4C8C933F4C9FA2275F042
:100AD30008E4C833C8C933C933C99AC99B5004C988
:100AE3002AC93BD5F0ECFBC833F4C8E4C9FA22C0E9
:100AF300E0C0D0E8C0E0E9C0E0C082C083A8C1E89C
:100B0300C0E09004D9E0F8745828F582E43404F581
:100B130083D0E0F09004D8E0F8A3E0687006E59590
:100B23009004DBF09004D9E004F0C394804002E425
:100B3300F0A374C6F0D083D082D0E0F9D0E0F8D02F
:100B4300D0D0E032C0E0C0D0E8C0E0E9C0E0C0826D
:100B5300C08390055CE0F8A3E0687008539AFBA398
:100B630074018022C2E990055CE0F8740128F074F6
:100B7300DC28F582E43404F583E0F5C190055CE0FC
:100B8300C394804002E4F080AC120BD730F03912EA
:100B93000C1C8034120BD720F01430E72B74FFFCAD
:100BA300FBFA747F8022E4FCFBFA7480801AB48021
:100BB30008BC00F2BB00EF800F50EBF9E4C39AFAD4
:100BC300E49BFBE49CFCE499C6CC18C6CB18C6CACC
:100BD30018C6F922E4C9C608CAC608CBC6D333036C
:100BE30008CCC63392F0C3947F402E94184019C9A1
:100BF300B90704CACBCC225025C309CA33CACB33A5
:100C0300CBCC33CC33D9F422F4600DC9CCC313CB92
:100C130013CBCA13CAD9F6CC22E4FCFBFA2214FC88
:100C2300FBFA22C0E074F2120E7CA2AFE433FED2D0
:100C3300AF900716E05589600FE589FA7900121F16
:100C43007E900716E0F45289C2C5EEA2E092AF7F10
:100C530001020EDBC0E074F2120E7CA2AFE433FE9D
:100C6300D2AF900717E0558A600FE58AFA7901122F
:100C73001F7E900717E0F4528AC2EB80CDC0E07468
:100C8300F2120E7CA2AFE433FED2AF900718E05508
:100C93008B600FE58BFA7902121F7E900718E0F440
:100CA300528BC2E880A4080808EAC0E0EBC0E086E3
:100CB300F0E7A4FA180986F0E7A42AFA180986F0DF
:100CC300E7A42AFA180986F0E7A42AFA1986F0E7B6
:100CD300A4FBE5F02AFA190886F0E7A42BFBE5F05C
:100CE3003AFA190886F0E7A42BFBE5F03AFA18184C
:100CF3000986F0E7A4C5F02BFBE43AFA1908E7C527
:100D0300F0C6A426F6E5F03BFBE43AFA1886F0E7D2
:100D1300A4F6E5F00826F6E43B08F6E43A08F6D034
:100D2300E0FBD0E0FA22080808E630E7111215DDEF
:100D3300120D41080808C64480C61818182218184E
:100D430018E9799EC608CAC608CBC608CCC6C370C4
:100D5300207996CACBCC7019798ECBCC7013798657
:100D6300CC700EF9802ACA33CACB33CBCC33CC3305
:100D73001930E7F2CCCBCA3350147004EA30E00DDB
:100D8300E4CA3ACACB3BCBCC3CCC500209C3E913EF
:100D9300C6CC182313C6CB18C6CA18C6F922E4CF8B
:100DA300C0E0E4CEC0E0E4CDC0E0E4CCC0E075F048
:100DB30020E626F608E633F608E633F608E633F6C9
:100DC300181818EC33FCED33FDEE33FEEF33FFC39D
:100DD300EC9709ED9709EE9709EF97191919400F49
:100DE300FFEC97FC09ED97FD09EE97FE191906D55F
:100DF300F0BFECF709EDF709EEF709EFF719191949
:100E0300D0E0FCD0E0FDD0E0FED0E0FF222518C505
:100E130082C0E0E51934FFC583C0E0E518C39582BD
:100E230024F810AF088583198582188008858319F3
:100E3300858218D2AFCEF0A3E520F0A37808E608A8
:100E4300F0A3DEFAEFF0A3E58124FAF8E608F0A3B5
:100E5300E608F0A3E608F0A30808E608F0A3E6080E
:100E6300F0A315811581D0E0FED0E0F8158115813E
:100E73001581E8C0E0EEC0E022C0D02518C582C0CD
:100E8300E0E51934FFC583C0E0E518C3958224F378
:100E930010AF088583198582188008858319858298
:100EA30018D2AFC8F0A3E9F0A3EAF0A3EBF0A3795B
:100EB30008E709F0A3D8FAECF0A3EDF0A3EEF0A352
:100EC300EFF0A3D0E0F0A3D0E0F0A3D0E0F0A3E5EF
:100ED30020F0A3E5F0F0A322851983851882E0C0F2
:100EE300E0A3E0F9A3E0FAA3E0FBA37808E0F608A7
:100EF300A3DFFAE0FCA3E0FDA3E0FEA3E0FFA3E091
:100F0300C0E0A3E0C0E0A3E0F5D0A3E0F520A3E0B8
:100F1300A3F5F010AF0885831985821880088583AF
:100F230019858218D2AFD082D083D0E0F8D0E032D6
:100F33001215E0181818120DA11216AF191919225B
:100F43001216AF191919080808E618181820E7E04F
:100F5300120DA11215E018181822090909E7191929
:100F63001920E7DC080808E618181820E703020D23
:100F7300A11215E0181818120DA11215E01818186F
:100F83001216AF191919221217B0B90003020FC9AB
:100F9300E4900401783379158002F0A3D8FCD9FAE0
:100FA3007A337B1890008678CF79018015E493A378
:100FB300AD82AE838A828B83F0A3AA82AB838D82B8
:100FC3008E83D8E9D9E775829A7583F5740612146E
:100FD3000875822075833574001214080475F010A7
:100FE3008E1A8F1B85821F85831E85188285198320
:100FF300E0CEA3E0CF851F82851E83EBC9EAC8ED4F
:10100300CBECCAC3E833C8E933C9EA33CAEB33CB01
:10101300C3EA9EF51DEB9FF51CB35004AB1CAA1D40
:10102300EC33CCED33CDD5F0DAAE1AAF1B22121769
:1010330010601C12171F60171217CE70071217C506
:101043007001D322C0D01217C57006D0D0B322C30B
:101053002233D0D0501430E0F6C3E7960809E79660
:101063000809E7960809E796B32220E0D5E6970832
:1010730009E6970809E6970809E697B322D083D0D3
:1010830082ECC0E0EDC0E0E493A3FCE493A3FDEDA8
:101093004C600D1211A4EC24FFFCED34FFFD80EF36
:1010A300E493A3FCE493A3FDED4C600D1212ABECAF
:1010B30024FFFCED34FFFD80EFD0E0FDD0E0FCE445
:1010C30093A3C0E0E493C0E022121710601B121731
:1010D3001F60161217CE70071217C5600CB322C01B
:1010E300D01217C57005D0D022C32233D0D05013ED
:1010F30030E0EBC3E7960809E7960809E796080985
:10110300E7962220E0E4E6970809E6970809E697C0
:101113000809E69722851983851882E0A3FEE0A3D8
:10112300F5207808E0A3F608DFFAE0A3FFE0A3C008
:10113300E0E0A3C0E0E0A3C0E0E0A3C0E0E0A3C020
:10114300E010AF0885821885831980088582188589
:101153008319D2AFD083D08202140ED083D082E918
:10116300C0E0E493A3C386F0C5F095F0F908E493D7
:10117300A386F0C5F095F0700BE493A3C3994005E3
:10118300E9048002A3E475F002A42582F582E5F068
:101193003583F583D0E0F9E493A3C0E0E493C0E0A2
:1011A30022C0E0C3E49396087401939618400FE4B9
:1011B3009366700808740193661870007019A3A3EE
:1011C300C3E49396087401939618A3A3400DD0E04B
:1011D300D0E0D0E00210BCA3A3A3A3A3A3D0E0223A
:1011E300C0E074F2120E7CC2D990187BE0C3940065
:1011F300A2D265D0334005E0F91223147F01020E19
:10120300DBC0E074F2120E7CC2DC90187DE0F9C3FF
:101213009400A2D265D033400312231480DE7404F9
:10122300800474028000CCC0E0EDC0E0E518C39CEC
:10123300CCAD1950011D10AF068C188D1980068C8A
:10124300188D19D2AF12136AD0E0FDD0E0FC2274DE
:10125300028000CCC0E0EDC0E0E518C39CCCAD1922
:1012630050011D10AF068C188D1980068C188D192E
:10127300D2AF121326D0E0FDD0E0FC22121710608B
:101283002512171F60201217CE70030217C5080816
:1012930008E76670101819E766700A1819E7667090
:1012A300041819E76622F422C0E0C0F088F0E49342
:1012B3006670080874019366187000A8F0A3A37001
:1012C3000BD0F0D0E0D0E0D0E00210BCA3A3D0F06C
:1012D300D0E022D083D082CCC0E0E493A360061296
:1012E30013AB1470FAE493A3600612150E1470FA8C
:1012F300D0E0FCE493A3C0E0E493C0E022C008C3C1
:10130300E096F50808A3E096420808A3E096420891
:1013130008A3E0964208A2D265D033E5087001D352
:10132300D00822CAC0E0E493A3C582CCC582C5839A
:10133300CDC583F0A3C582CCC582C583CDC583DA71
:10134300E5D0E0CA22A2E792D65002F40430F706B1
:1013530063F0FF05F0B3400384800384F40430D6C4
:101363000563F0FF05F022CAC0E0E0A3C582CCC547
:1013730082C583CDC583F0A3C582CCC582C583CD89
:10138300C583DAE6D0E0CA22C0E0C0D0C082C08301
:1013930075AF00900754E02401F0A3E03400F0D0CF
:1013A30083D082D0D0D0E032C0E0E493A3D39C506A
:1013B30010E493A3C39C400AD0E0D0E0D0E0021233
:1013C300F3A3A3A3D0E0227009080808226016182B
:1013D3001818C6C333C608C633C608C633C608C6FC
:1013E30033C6D5E0EA22C008C3E096F50808A3E0B7
:1013F30096420808A3E096420808A3E096450870C1
:1014030001D3D00822C09FF59FE473D09F22D083DD
:10141300D082C09FE493C0E0740193C0E074029350
:10142300F59F227404800A74038006740280027498
:1014330001C0E0F404121441D0E012175B22251816
:10144300F58210AF08F518400C15198008F51840FF
:10145300021519D2AF8519832200C0D0251810AF09
:1014630008F518500C05198008F51850020519D213
:10147300AFD0D022C0E0C0D0E8C0E0A8A8D2AFC2AD
:10148300C7E8A2E792AFD0E0F8D0D0D0E032BB01FA
:1014930002E722C082C08389828A83BB0003E08083
:1014A30002E493D083D082226017080808C6A2E71B
:1014B30013C618C613C618C613C618C613C6D5E076
:1014C300E9226016080808C6C313C618C613C6184F
:1014D300C613C618C613C6D5E0EA222518F8E435A4
:1014E30019F9222518FAE43519FB222518FCE435ED
:1014F30019FD22C3E0C696F608A3E0C696F608A334
:10150300E0C696F608A3E0C696F622C0E0E493A3ED
:101513006C7009D0E0D0E0D0E00212F3A3A3D0E0D6
:1015230022251810AF08F518400C15198008F51876
:1015330040021519D2AF22C3E09608A3E09608A390
:10154300E09608A3E096A2D265D03322E766701036
:101553000809E766700A0809E76670040809E76680
:1015630022E066701008A3E066700A08A3E06670C4
:101573000408A3E06622181818E60846087009E66E
:1015830026087005E633F4220822C3E49396087410
:10159300019396087402939608740393962219197B
:1015A30019E70947097009E727097005E733F422AA
:1015B3000922C3E096F008A3E096F008A3E096F0B2
:1015C30008A3E096F022C3E697F60809E697F60823
:1015D30009E697F60809E697F622181818E4C39661
:1015E300F608E496F608E496F608E496F622E02672
:1015F300F608A3E036F608A3E036F608A3E036F6CD
:1016030022E627F60809E637F60809E637F6080959
:10161300E637F622E493F608740193F6087402930E
:10162300F608740393F622E657F60809E657F60818
:1016330009E657F60809E657F622E056F008A3E054
:1016430056F008A3E056F008A3E056F022E647F66A
:101653000809E647F60809E647F60809E647F622C9
:10166300700422600D18C6C333C608C633C6D5E05E
:10167300F41822E667F60809E667F60809E667F64E
:101683000809E667F622E026F008A3E036F008A38F
:10169300E036F008A3E036F022E056F608A3E05661
:1016A300F608A3E056F608A3E056F622E4C397F73C
:1016B30009E497F709E497F709E497F722600D081F
:1016C300C6A2E713C618C613C6D5E0F322C6F4C6EE
:1016D30008C6F4C608C6F4C608C6F4C622C3E09614
:1016E30008A3E09608A3E09608A3E09622C3E79632
:1016F3000809E7960809E7960809E7962275D000D6
:1017030075813F75180175190400020F8AE60846B2
:1017130008C3134608336002E633F422E709470996
:10172300C3134709336002E733F422600C08C6C3CE
:1017330013C618C613C6D5E0F422E6F008A3E6F0F4
:1017430008A3E6F008A3E6F022E0F608A3E0F60813
:10175300A3E0F608A3E0F622CAC0E0E6F0A308DAA5
:10176300FAD0E0FA22E0FCA3E0FDA3E0FEA3E0FF51
:1017730022EAF0A3EBF0A3ECF0A3EDF022E0FAA34E
:10178300E0FBA3E0FCA3E0FD22E8F0A3E9F0A3EA79
:10179300F0A3EBF022ECF0A3EDF0A3EEF0A3EFF057
:1017A30022E0F8A3E0F9A3E0FAA3E0FB22E5C754A3
:1017B300F84401F5C77901222518F582E43519F5B6
:1017C3008322E72719471947194722E6261846189F
:1017D30046184622C2AF75D69F020000221214118A
:1017E3009FA803121411DBA803121411EDAA03120C
:1017F300141165AD0312141190B00312141157B0F4
:1018030005121411E0B10512141129B205121411B5
:1018130028B3051214116EB405121411F5B505128F
:10182300141157B605121411C1B60512141127B8B5
:1018330005121411D1FF04121411648A0512141134
:10184300BD8A051214111B8B05121411AD8B0512E1
:101853001411098C05121411428F05121411709181
:10186300051214119E920512141122E4061214118A
:101873008CE406121411ADE406121411EBE4061203
:10188300141130E50612141156E5061214115FE522
:10189300061214110DE60612141171E60612141144
:1018A300188507121411F48A071214110F8B0712EB
:1018B3001411BFFA0412141112FB0412141195FB34
:1018C30004121411CFFE041214116CFF041214112C
:1018D30046C50412141125C60412141125C7041297
:1018E3001411F9C704121411DBCA041214112DCCFC
:1018F30004121411E3CC04121411E2CD04121411D6
:1019030015CF04121411C0D205121411CED2051230
:101913001411DFD305121411C2D4051214114BD6BE
:10192300051214110BD9051214113AD10612141110
:10193300CCD1061214110BD30612141127D306129D
:101943001411468407121411578407121411F584D5
:1019530007121411008507121411FC7F00121411D1
:10196300128C07121411A08707121411B0870712E3
:101973001411C587071214112B88071214114482FE
:1019830007121411C782071214112D8307121411A1
:101993009AF306121411D5F30612141131F4061238
:1019A300141189F40612141110F5061214114CF5D2
:1019B30006121411FF8B071214110F8C0712141146
:1019C30052CD06121411A8CD06121411F7CD06122A
:1019D300141124CE061214117ACE06121411368B6A
:1019E300071214111EEF0612141168EF06121411D8
:1019F300FEEF0612141184F006121411B5F006124C
:101A03001411CDF00612141141F10612141157F1FD
:101A1300061214116AF10612141174F1061214114C
:101A230010BA041214115CBF041214118EBF0412F5
:101A33001411BABF0412141162C00412141158C352
:101A4300041214110080051214116580051214117B
:101A5300158105121411E281051214113883051240
:101A630014112284051214112985051214110987F2
:101A7300051214113C8705121411A68705121411BF
:101A8300CD8705121411338905121411A589051286
:101A93001411DA8905121411EE8905121411B3E138
:101AA300051214112EE3051214114DE4051214113D
:101AB30022E6051214116397061214118F9706126A
:101AC3001411009A06121411409A06121411809AE6
:101AD30006121411949A06121411AD9A06121411D7
:101AE3009E9B06121411439C06121411579C061256
:101AF300141171FA0612141195FA06121411AEFAA2
:101B030006121411E0FA0612141110FB0612141136
:101B13003DFB061214119FFB06121411AEFB0612B5
:101B23001411B8FB06121411C5FB0612141188EC2C
:101B330006121411A8EC06121411E7EC0612141184
:101B430002ED0612141121ED0612141187ED06128F
:101B5300141190ED06121411EDED0612141111EE8D
:101B630006121411D2EE06121411DFEE061214112E
:101B7300F0EE06121411DF8907121411F789071208
:101B83001411238A071214111EAB0612141178AC18
:101B93000612141186AC0612141199AC0612141114
:101BA300AEAC06121411C3AC06121411D6AC061255
:101BB30014114AAD06121411AFAD0612141151AE31
:101BC3000612141115AF0612141125AF06121411C3
:101BD30034AF06121411D68507121411FA850712B1
:101BE30014112286071214114A8607121411AD7DAF
:101BF30000121411D47D00121411F27D001214117D
:101C0300657E00121411EEE60612141107E70612A0
:101C1300141113E70612141127E70612141145E7EE
:101C2300061214114FE70612141159E70612141184
:101C33006CE706121411F2E70612141167E8061294
:101C4300141196E806121411E4E80612141133E98C
:101C5300061214114EE90612141158E90612141152
:101C630069E906121411ACE906121411B0FF061249
:101C73001411F6A60512141120A7051214113DA77D
:101C83000512141150A70512141166A70512141199
:101C9300C4A705121411FCA705121411F0AB051209
:101CA300141135AD0512141168AD05121411CBAD25
:101CB300051214112BAF0512141153AF0512141191
:101CC30068AF0512141178AF05121411BCAF0512D9
:101CD300141117B00512141127B005121411008046
:101CE300071214111A8007121411428007121411DB
:101CF3005B80071214117F80071214119D80071255
:101D03001411B48007121411E28007121411FD801C
:101D130007121411B08A0712141159FC0512141179
:101D230069FC051214116EFD05121411A0FD0512B4
:101D33001411C6FD05121411E9FD0512141100FE5C
:101D4300051214113AFE051214119FFE0512141107
:101D5300E1FE0512141120FF0512141151FF0512A3
:101D6300141188FF0512141139CB051214111ECC5E
:101D73000512141149CC0512141166CC0512141165
:101D830073CD05121411B7CD051214115ECE0512D1
:101D930014111ACF0512141125D0051214115CD198
:101DA3000512141124C50612141179C50612141153
:101DB300F9C5061214110CC60612141133C6061205
:101DC3001411D6C606121411B7C706121411A4B9FA
:101DD30005121411CFB9051214119ABA0512141170
:101DE300D7BA0512141168BB05121411E4BE05120B
:101DF3001411F7C00512141100800312141140804E
:101E030003121411418203121411328503121411A7
:101E1300548603121411BE8903121411328A031259
:101E23001411CC8A03121411238B031214118B8BFC
:101E330003121411DB8B03121411098C03121411F6
:101E43000C8C031214111C8C031214112F8C03120B
:101E530014117A8C03121411378E031214119C8EF1
:101E630003121411EF8E031214118B8F031214112A
:101E7300179003121411169203121411BF93031235
:101E830014118695031214117296031214111E98DD
:101E9300031214113081071214114A81071214110D
:101EA300A08107121411CE8107121411E8810712C1
:101EB30014110182071214112A82071214111186B8
:101EC3000612141142860612141196860612141174
:101ED300668706121411938706121411C08706121F
:101EE30014111288061214113C880612141160880A
:101EF300061214118888061214110A890612141185
:101F0300948906121411C58906121411EC8906125C
:101F13001411328A06121411508A06121411748A8B
:101F230006121411948A06121411CA8A0612141185
:101F3300298B061214114B8B06121411AA8B06124D
:101F43001411B98B06121411F28B0612141140DA14
:101F5300051214117ADA05121411B5DB05121411E6
:101F6300E1DC051214118CE1051214110080061234
:101F730014113A8006121411FD8006121411F3FE97
:101F83000312141164FF03121411C6FF0312141178
:101F9300B2E504121411E2E604121411F7E7041275
:101FA300141137E90412141191E904121411CFE941
:101FB30004121411DDE9041214110DEA04121411B0
:101FC3009EEA04121411FAEB0412141126ED041202
:101FD3001411C0EE0412141134F004121411A0D41D
:101FE3000612141102D5061214113BD50612141150
:101FF30034D7061214116B9C06121411AE9C0612F0
:102003001411E49C061214110B9E061214119F9FC7
:102013000612141105A00612141138A10612141188
:102023008C9D05121411A99E051214111F9F0512F0
:10203300141118A00512141166A005121411E1A3BE
:1020430005121411C1A40512141116A505121411B9
:10205300F6A5051214110DF9061214114AF9061208
:10206300141179F9061214118DF906121411F3B330
:102073000612141105B506121411E8B5061214114F
:1020830009B606121411D2B60612141174B7061249
:102093001411A5B70612141125B806121411D7EF9F
:1020A3000512141139F005121411D8F00512141188
:1020B30063F20512141161F50512141177F5051277
:1020C3001411CFFB06121411E1FB06121411F5FCD7
:1020D30006121411F8FC0612141125FD0612141130
:1020E3005BFD0612141175FD06121411B7FD0612DD
:1020F3001411C7FD0612141161FE06121411DCE857
:1021030005121411E6E80512141120E90512141141
:1021130089E905121411A6E90512141148EA0512FA
:10212300141151EA0512141196EA05121411BFEAAB
:1021330005121411CCEA051214113DEB051214110A
:10214300C8EB0512141116EC0512141154EC051208
:102153001411B9EC05121411DCEC0512141153ED32
:1021630005121411AAED05121411E5ED051214114F
:102173001AEE051214112CEE051214113EEE05127F
:1021830014115DEE0512141166EE0512141121EF00
:10219300051214116DEF05121411ABEF0512141192
:1021A30056A10612141196A206121411B9A2061210
:1021B3001411CAA206121411C9A406121411E9A417
:1021C30006121411CE8B071214114ADE06121411D3
:1021D3008EDE06121411D6DE06121411BCE00612AE
:1021E30014114BE106121411BC8807121411AEDB53
:1021F30003121411D2DC031214110CDD0312141197
:10220300B6DE03121411E0DE0312141155E10312BA
:10221300141195E1031214112BE303121411C8E3F3
:10222300031214111AE403121411BDE4031214115E
:10223300F5E40312141137E503121411A6E6031291
:102243001411F4E70312141125EA0312141153EACB
:10225300031214117AEA0312141183EA03121411FC
:10226300D3EA0312141165EB0312141194EE031253
:10227300141117EF03121411E98B071214114EC92D
:102283000612141164C90612141108CA0612141195
:1022930047CA0612141164CA0612141195CA06120B
:1022A3001411E2CA0612141115CB0612141150CBE5
:1022B3000612141145CD0612141139F60512141124
:1022C30040F8051214117FF90512141197F905123C
:1022D30014116DAF06121411B3B0061214111AB211
:1022E30006121411EFC20512141112C405121411AF
:1022F30019C50512141179C6051214119BC70512CD
:1023030014117CC80512141187F10612141135F249
:1023130006121411008004121411C5800412141142
:10232300D28004121411838104121411E281041265
:102333001411F083041214116084041214116586BD
:10234300041214119E86041214114D8904121411DF
:10235300758904121411F78904121411728A041274
:102363001411FC8B041214118B8C04121411078D9D
:1023730004121411BA9106121411E19106121411E8
:102383003C9406121411639406121411B8940612A5
:102393001411EA9506121411669606121411B7E980
:1023A30006121411CFE9061214111AEB06121411B6
:1023B30021EB061214114AEB06121411468307127D
:1023C3001411A58307121411E38307121411248433
:1023D30007121411FFAD0412141168AE0412141184
:1023E300B3AE04121411E0AE04121411C5B00412FA
:1023F3001411A8B40412141136B60412141141B7FF
:102403000412141157B80412141172FA01121411A0
:1024130098FA01121411D8FB01121411CDFC011208
:102423001411F4FC011214118DFD01121411E1FDBC
:1024330001121411FCFE011214116F8607121411FC
:10244300B98607121411018C061214115E8C061240
:1024530014113C8D06121411AB8D06121411CF8D7D
:1024630006121411B68E06121411168F06121411C9
:10247300C78F061214115090061214116E8B071297
:102483001411818B071214116BFE061214117AFEBC
:1024930006121411DAFE06121411E0FF05121411CC
:1024A300E6FF05121411ECFF0512141131D00412CA
:1024B30014119CD00412141177D104121411AFD249
:1024C3000412141122D304121411D0D304121411C0
:1024D300B0D4041214119FD504121411E5D60412BA
:1024E30014114DD9041214110080021214110C801E
:1024F300021214116E800212141178800212141148
:102503000B81021214114781021214110382021269
:102513001411168202121411668202121411F5822A
:10252300021214112B8302121411AD83021214111F
:102533005C850212141130870212141116880212DC
:102543001411688902121411BE8B02121411278D03
:1025530002121411C48D021214116C92021214117E
:102563005A9302121411F8930212141124940212B2
:102573001411E09A03121411D59402121411F99450
:10258300021214115F95021214117C950212141198
:10259300A6950212141123970212141144970212E2
:1025A3001411CA9702121411709802121411B798D9
:1025B300021214112A9902121411B699021214115B
:1025C3001A9A021214117A9A02121411109B02120F
:1025D30014118B9B02121411BE9B02121411209C26
:1025E30002121411829D02121411F29D021214118F
:1025F300A19E02121411F79F021214118FA002124E
:102603001411FBA0021214113EA30212141199A774
:1026130003121411F5A402121411DBA602121411F1
:1026230071A8021214117AA90212141125A004121E
:102633001411DCA004121411E3A10412141161A2F9
:1026430004121411A3A304121411C4A30412141129
:102653007CA40412141127A50412141107A904124F
:10266300141123AB041214118AAC041214116C8AD2
:102673000712141108D90212141160D9021214118D
:10268300E6D902121411F8DA0212141145DB021210
:1026930014112BDC0212141142DC0212141194DC0B
:1026A30002121411CCDC02121411DFDC0212141119
:1026B30035DD021214118EDD02121411A6DD021291
:1026C300141116E002121411ADE002121411D7E036
:1026D300021214110FE10212141135E30212141144
:1026E3007BE302121411C5E30212141199E40212DE
:1026F3001411DAE402121411FDE40212141144E578
:102703000212141166E502121411E7E50212141104
:1027130074E602121411CEE60212141116E7021225
:1027230014118BE80212141107EB0212141194EB2B
:1027330002121411C0EC02121411FBEC0212141158
:10274300C8ED0212141108EE021214110BEE02125C
:10275300141115EE0212141128EE02121411A9EE2F
:1027630002121411DFEE021214110BEF02121411F4
:1027730032EF0212141156EF02121411EDEF02128E
:10278300141106F00212141139F00212141159F047
:102793000212141196F002121411CDF00212141148
:1027A300CCF102121411FFF2021214113588071230
:1027B3001411418807121411878807121411FAFFA4
:1027C30003121411FBB1031214111EB203121411DC
:1027D300F5B2031214113EB30312141196B303128C
:1027E3001411F0B3031214113CB403121411B2B454
:1027F3000312141140B503121411B8B503121411C6
:10280300FBB503121411D8B9031214111FBC031220
:10281300141152BC03121411D0BC0312141155BD70
:10282300031214112DBE0312141157BF03121411F6
:1028330042C0031214111FC1031214115BC203120D
:102843001411FFC30312141191C40312141198C677
:102853000312141164EF0312141104F00312141180
:102863006EF00312141115F10312141179F103120E
:102873001411ACF203121411D2F3031214114BF41A
:102883000312141123F603121411C3F603121411C5
:1028930066F703121411C5F70312141180F803121B
:1028A300141146FA03121411E9FB0312141195FCD7
:1028B30003121411AAFD0312141128C703121411D1
:1028C300A0C703121411E8C7031214112CC8031272
:1028D300141175C803121411BFC803121411F4C8DC
:1028E3000312141172C903121411CCC90312141167
:1028F30025CB03121411AECB031214110ACC03120D
:10290300141124CC031214114BCC03121411A3CCB5
:10291300031214110DCE031214112CCE0312141131
:1029230054CF03121411D1CF031214113ED003124A
:102933001411A0D00312141150D10312141122D375
:10294300031214110DD40312141107D50312141119
:102953000DD60312141129D70312141137D70312FA
:10296300141110D803121411B0D803121411F4D88F
:102973000312141109D9031214111ADA03121411D0
:10298300BDDA0312141115DB0312141154E10612FC
:1029930014118DE2061214114AE306121411AEE368
:1029A3000612141126DB0612141141DB0612141150
:1029B30085DB06121411ABDB06121411D1DB0612F0
:1029C3001411E9DB061214114CDC0612141161DC3C
:1029D3000612141183DD061214118CDD0612141174
:1029E30095DD061214119EDD06121411A8DD0612E0
:1029F3001411A2BC0612141182C00612141187C04E
:102A03000612141189C00612141107F606121411C6
:102A1300928B071214112E8907121411268A07129A
:102A23001411D07F00121411F0C0061214110A877A
:102A3300071214113487071214117AF706121411AE
:102A4300D7FF01121411B08B07121411A4FF021245
:102A530014118F8907121411EBD70612141183D6A0
:102A630001121411DAD60112141146D701121411EE
:102A7300D2D70112141188D801121411D0D801121F
:102A83001411E9D8011214110CD9011214112ED901
:102A9300011214116CD901121411BBD901121411B2
:102AA300E6D90112141144DA01121411EBDA0112FE
:102AB300141193DB011214110FDC01121411DCDC6D
:102AC3000112141128DD01121411B0DD01121411C9
:102AD300E9DD011214117ADE011214118BDE0112E9
:102AE3001411FDDE0112141196DF0112141100E01E
:102AF30001121411F0E00112141115E10112141165
:102B030012E2011214111FE20112141128E2011240
:102B1300141111E4011214112DE501121411BEE573
:102B2300011214112FE60112141109E801121411F4
:102B3300D4EB01121411E8EB01121411F8EB01129A
:102B4300141102EC011214110BEC0112141114EC08
:102B5300011214111EEC011214114DEC0112141187
:102B63007BEC0112141186EC01121411AAEC011270
:102B73001411CEEC0112141140ED0112141189ED60
:102B830001121411A5ED0112141116EE0112141104
:102B930062EE01121411ABEE01121411E9EE0112EF
:102BA30014116AEF0112141135F101121411D4F149
:102BB300011214119CF20112141128F501121411BF
:102BC3007DF501121411A5F501121411D8F60112A5
:102BD30014111DF70112141172F70112141120F8C8
:102BE30001121411C5F801121411FAF8011214118B
:102BF3009AF90112141116FA011214115A850112CD
:102C030014118C8501121411C085011214117487DB
:102C130001121411488801121411A788011214110A
:102C2300BD8901121411098A01121411A68C011213
:102C330014111B8F01121411679001121411FF90CC
:102C4300011214110B910112141154910112141158
:102C53008791011214111392011214112593011279
:102C630014116694011214116595011214118F95B4
:102C730001121411FA950112141153960112141131
:102C8300C69601121411FC9801121411829A0112B2
:102C930014116D9B01121411BB9C01121411F39EAC
:102CA30001121411EAA101121411F9A10112141154
:102CB3008DA20112141138A3011214117BA3011266
:102CC3001411C4A30112141114A40112141181A428
:102CD30001121411EDA40112141109A5011214110A
:102CE30038A50112141177A5011214115FA6011260
:102CF30014110EA70112141185A901121411B7AAF8
:102D03000112141186AB0112141108AC0112141133
:102D130054B00112141183B001121411DEB0011268
:102D2300141111B1011214116CB10112141188B1F3
:102D330001121411E9B10112141139B20112141163
:102D4300E8B201121411ABB30112141173B40112DE
:102D53001411BFB6011214114BB801121411A2B908
:102D630001121411BEBA01121411C1BA01121411C5
:102D7300F0BA01121411DFBC01121411A8BD011223
:102D83001411E9BD011214113FBF01121411B5BF93
:102D930001121411E8BF011214114CC001121411D5
:102DA3006DC201121411CCC201121411A2C301127B
:102DB3001411B6C301121411CAC301121411F7C3BB
:102DC3000112141127C401121411CBC501121411DD
:102DD300C8C60112141116C7011214113DC70112FE
:102DE300141118C801121411BEC80112141144CAD7
:102DF300011214118BCA01121411F8CA0112141111
:102E03004DCC01121411F6CC011214112ACD01126A
:102E1300141142CD01121411E5CD0112141161D028
:102E23000112141109D2011214112DD2011214111D
:102E33004BD20112141117D30112141165D60112CA
:102E43001411553C00121411873C00121411074150
:102E5300001214115641001214119C410012141156
:102E63003F4200121411A44200121411E84200124E
:102E730014114F44001214117B45001214117849A8
:102E830000121411F749001214111D4B00121411F2
:102E9300804B00121411CC4C00121411644F001219
:102EA3001411F14F00121411FB4F0012141123508F
:102EB30000121411EB50001214118051001214115E
:102EC300A95100121411D651001214112B540012DF
:102ED3001411F85400121411375500121411B95576
:102EE3000012141164560012141196560012141194
:102EF300E156001214111A570012141169570012E7
:102F03001411C55700121411475800121411AC586C
:102F130000121411245900121411CD5A0012141165
:102F2300C55B00121411065D001214115A600012E1
:102F33001411B662001214116F6300121411B763F7
:102F430000121411986500121411D36500121411A4
:102F5300DC6500121411E56500121411F06500120E
:102F630014110F6600121411C266001214111F67A8
:102F7300001214112967001214113367001214117F
:102F83007F6700121411C76700121411CB68001277
:102F930014116469001214112B6A00121411556B79
:102FA30000121411806C00121411766D00121411AA
:102FB3008E6D00121411C26D00121411E06D001217
:102FC3001411286E00121411616E00121411186F7F
:102FD30000121411D96F001214114C700012141145
:102FE300C870001214116471001214118A72001255
:102FF3001411467300121411E67300121411D374E2
:10300300001214112B7500121411F1750012141112
:103013001476001214112977001214117477001218
:103023001411D077001214113878001214115C783F
:1030330000121411847800121411C97800121411AB
:10304300ED78001214117179001214115A7A0012DA
:1030530014119F7A00121411C87A00121411667B9E
:1030630000121411D17B00121411DF7B0012141112
:103073000B7C00121411EC7C001214113FF00412AB
:10308300141177F00412141198F004121411DAF0E9
:10309300041214113EF10412141148F10412141114
:1030A30058F1041214118FF10412141138F504129B
:1030B300141100F704121411E4F80412141186F920
:1030C3000412141110FA04121411E4AE02121411B2
:1030D30048AF02121411A6AF02121411F1AF02127B
:1030E30014110CB00212141133B00212141150B0A7
:1030F300021214115CB002121411EDB10212141178
:1031030006B20212141182B20212141195B2021203
:103113001411A5B20212141149B302121411B5B459
:1031230002121411C8B50212141168B60212141156
:1031330072B602121411F1B60212141102B702127E
:10314300141141B7021214116FB7021214113CB8D3
:103153000212141193B802121411CCB802121411F2
:1031630022B90212141140B9021214118EB90212BB
:10317300141159BA02121411A7BA02121411F4BA93
:103183000212141177BB02121411A1BB0212141103
:10319300D7BB02121411E6BB0212141145BC021272
:1031A3001411BDBC02121411FEBC021214114EBD47
:1031B3000212141179BD0212141193BD02121411DB
:1031C300ADBD0212141182BE021214118CBE021282
:1031D3001411C7BE02121411D7BE02121411E0BE9D
:1031E3000212141131BF0212141145BF021214113D
:1031F30067C0021214117CC0021214110FC1021213
:10320300141183C10212141128C20212141133C201
:103213000212141193C302121411AFC30212141138
:10322300FBC30212141169C4021214119BC40212CB
:103233001411B5C402121411F7C4021214114AC7AF
:1032430002121411E2C70212141159C80212141106
:10325300B6CA02121411CECA02121411D1CA021232
:103263001411DDCA02121411F1CA02121411F9CA9F
:103273000212141130CB0212141124CC02121411B5
:10328300AECC0212141130CD02121411B0CD0212C1
:10329300141187CE02121411A9CE0212141142CFB7
:1032A300021214119FCF02121411A2CF0212141191
:1032B30011D0021214115DD10212141170D2021234
:1032C3001411FBD2021214110ED402121411D3D40E
:1032D3000212141104D5021214112AD50212141168
:1032E30033D50212141162D50212141112D602122E
:1032F3001411C2D60212141135D702121411D8D7E1
:10330300021214114BD8021214118AD8021214118A
:10331300D3D802121411D69A03121411B99A0312B4
:103323001411E19903121411659903121411799E72
:1033330004121411009D04121411ED9B04121411B4
:10334300C79904121411709904121411B39704123B
:1033530014112A9504121411B6940412141141A5E0
:1033630003121411CDA40312141197930412141110
:103373006C920412141192A30312141151A3031299
:1033830014111792041214117AA80612141177A7B4
:1033930006121411FFA6061214111FA60612141109
:1033A300CBFE02121411F1FD0212141127FD0212B9
:1033B300141196FB021214115FFB0212141131FB5C
:1033C30002121411E5FA021214114EFA0212141128
:1033D300BEF90212141198F9021214114DF90212D6
:1033E300141117F9021214119AF80212141135F874
:1033F30002121411E4F7021214110CF70212141141
:103403007CF60212141130F602121411ABF50212FB
:10341300141166F5021214114AF502121411EF9FEA
:1034230003121411F2F302121411F49E0312141175
:103433005F9E03121411129E03121411909D031226
:103443001411159D03121411959C031214114B9C16
:1034530003121411EF9B03121411C4F3021214117B
:1034630091F30212141115F302121411AEBA0612DB
:1034730014119E9B0312141183B906121411B8B8C8
:10348300061214114DB80612141167E50412141133
:10349300619B031214110EE504121411CAA4021243
:1034A3001411D9E404121411A4E40412141170E4E5
:1034B3000412141103E404121411EBE304121411A3
:1034C300C6E30412141197E0041214116ADE041205
:1034D30014116ADC04121411F0DB04121411A1DBC1
:1034E300041214115BDB04121411FDDA041214111B
:1034F3003F9A051214111B9B03121411AD99051267
:103503001411BE9805121411249705121411E49492
:10351300051214111D9405121411C0940200000029
:1035230080FBE4738F000100611687000100CD1852
:1035330035000400921825000200961826000200A8
:103543009818270002009A1828000100A4182900DF
:103553000100A51884000400A61886000100AA181B
:103563002A000100AB182B000100AC182C0001004D
:10357300B0182D00080044162E000100B1182F00CA
:103583000100B21830000100B31831000100B41873
:10359300320001004C16330001004D1634000100C7
:1035A300B518360001004E1638000100B618390070
:1035B3000100AF1883000200CB18630001005E1600
:1035C30064000100AD1865000100AE186D00010034
:1035D3005F16710008003C1666000100CA1843001C
:1035E3000100BB1844000200BC1845000100BE18CE
:1035F30046000200BF1847000800561648000100A5
:10360300C1184B000100C21804000100CE18A1002C
:103613000100D11837000100D01888000100CF182D
:103623003C0001004F163D000100B718490002009D
:10363300C3186700010060164D000200C5184E0054
:103643000100C7184F000200C8183E0001005516BC
:1036530051000100B81852000100B91853000100CD
:10366300BA185400010050160000000000000000CA
:103673000000200159850000010020015985000048
:10368300020020015785000003002001548500003B
:10369300040042016D800000050042017E800000AD
:1036A30006004201A080000007002001AB8000005B
:1036B300100042018F80000011002001710A0000F8
:1036C30000404201A0800600000010110000070026
:1036D3000000303300000700100030330000070003
:1036E300014020330000070002402033000008009F
:1036F3000000203300000A000000E23300000A004B
:103703000100183300000C005500393300000C0091
:103713001C0042330000110004004233000011007A
:103723004300233300001100510010110000110069
:10373300550010110000110067001811000011005E
:103743006F00181100001200550020010000140042
:103753000E00422200000001363601010001020181
:103763000001030100010401060605020000070130
:1037730000340801000F090401010D0100FF0E08C8
:10378300000017020000190100FF1A0100011B01CC
:1037930000FE1C0100081D0200001F0100012001A2
:1037A3000001210200002301000F24020000260172
:1037B300000127010008280200FF2A0100072B014E
:1037C30002402C0100002D0100012E0100012F01F8
:1037D30000FF30010B1D310800003A0100083B01D6
:1037E300000F3C0100013D0100FF3E0400004204C4
:1037F3000000460400004A0400004E040000520486
:103803000000560400005A0400000020202020205D
:10381300202020202828282828202020202020207D
:10382300202020202020202020202088101010106D
:1038330010101010101010101010100404040404C1
:1038430004040404041010101010101041414141ED
:1038530041410101010101010101010101010101D5
:1038630001010101010110101010101042424242E7
:1038730042420202020202020202020202020202A5
:103883000202020202021010101020010371030150
:1038930003010301030103010322030203010310D4
:1038A30003000300030003000300030003000342BB
:1038B3000300032403060300030003040312032588
:1038C300032303250323030403040300030003006A
:1038D30003440300030003230300036503210035AE
:1038E3000381030003050300030003000300032512
:1038F300032303030271023001600211027002010B
:1039030002020202028002100261023A00410063D5
:1039130002730272026202430200021302380000C1
:10392300020002040212020002000200020002046A
:10393300020402370037003C02440200023900004F
:1039430002000265020002350281020002050282C2
:103953000283020002010171010101010111010150
:10396300013101010101018001100161013B0014DA
:103973000063017301720162014301000113010637
:10398300013D0135000401120100010001000100A5
:103993000104010401330133013C014401320136C6
:1039A30000000100016501000135008101000105EE
:1039B30001820183010001030071003001600011E5
:1039C30000700031022003500480001000610000E9
:1039D30000140063007300720062004300000013D0
:1039E30000060000000000040012000000000000B8
:1039F30000000004000400370037003C02440000CC
:103A03000000000000000065000000350081000098
:103A130000050000008300000036000100060000DE
:103A2300000F000000000000000000000000000381
:103A3300FFFF00000403FFFF0000FFFF0FF401007E
:103A430005C4040320000100000B00000000000077
:103A5300000003010F000000000000000000000050
:103A63000000000000000000000000000000000053
:103A730000000000000000D8251426DE250625E4FA
:103A8300251A26E4252626EA250625E4251A26F006
:103A9300250625F6250625FC2506250226062508E6
:103AA3002606259C340625000000000000000000C7
:103AB3000000000000000000000000000000000003
:103AC30000000000000000000000000000000000F3
:103AD30000000000006C2813003C2801006C280241
:103AE30000E2270300E8270400EE270500F4270679
:103AF300000028300018283300242834002A281115
:103B03000030281400362815001228FFFF00000A91
:103B13000000000200000004000000080000001084
:103B230000000020000000400000008000000000B2
:103B33000100000002000000040000000800000073
:103B4300100000002000000040000007ECFDFDFD18
:103B5300ECDCDCCCBCACAC9C9C8C7C7C6C6C5C5C92
:103B63005C4C4C3C3C2C2C1C1C51001000005500A0
:103B730010000067001800006F00180000040042E6
:103B83000000430023000003EAF5E5D5D5C5B5A53C
:103B93009595858575756565555545453535252552
:103BA3001515050AB42E02842E05962E078A2E0CAF
:103BB3006C2E0D782EFF000000160F00000B150B66
:103BC300020002220F3300000E5A69674265654105
:103BD3006C6C69616E6365303901030507090B0D70
:103BE3000F00020406080A0C0D00393D3F373C3C28
:103BF300362C442D00034A49434E181A250502006A
:103C0300011916181616182303000C0E020B040BC9
:103C13000A0708000F303016181920231A1C1E300B
:103C2300303017181921301B1D1F30020402010107
:103C330001010902E803000000BE040A0E00E803C4
:103C43001E08100C0405FF28040409081D1E0303A5
:103C53000A0C74F7120E10E990172CF09016E1E499
:103C6300F01220C2901735E4F0A3F090172DF0A3C3
:103C7300F01230161220C8901671E4F0A3F0122946
:103C8300D40257C074EC120E1074D7121524EAFE36
:103C9300EBFF5480606890172CE0F912213A8A08F0
:103CA3008B09EA4509604F7C0080010CEC75F00339
:103CB300A4F8A9F074A628F582743B39F583E4933C
:103CC300F4602CE493F88508828B83E06870DCAAA7
:103CD30008EC75F003A4F874A728F582743B39F552
:103CE30083E493C0E0740193F583D082123525AA4F
:103CF30008AB09122128EEFAEF64800240E9EF5481
:103D030020601E122F0E8A088B09EA4509600A12E9
:103D13002E78AA08AB09122128EEFAEF642002409C
:103D2300E9EEA2E0501F9016E6E0640F70117900EF
:103D3300122E4EE96009901892121780122E66EE29
:103D430064010240BEEF5440604F901882E0640665
:103D53007028740BF09018AAE0F975080175090032
:103D6300750A00750B009016D4E078081213CAAADE
:103D730008AB09AC0AAD0B122AFA901651121221A4
:103D83007A007B4090172CE0F912229C74041214E1
:103D93005CEEFAEF64400240E9EE54207003024007
:103DA300C27A207B0090172CE0F91222A8EA4B4C30
:103DB3004D701A9017311217A4E8494A4B700E75CB
:103DC3000C01750D00750E00750F008061750C00F8
:103DD300750D00750E00750F001222B48A088B0949
:103DE3008C0A8D0B9017311217A4E8494A4B602AAD
:103DF30090173178081213E9400E750CFF750DFF0B
:103E0300750EFF750FFF801285080C85090D8C0E4A
:103E13008D0F901731780C1214F67401780C12146C
:103E2300C5E50C450D450E450F7003023FEF7C00C1
:103E330079047A007B00122EEA8A088B09023F1666
:103E430085188285198374FFF074011217BB74FF00
:103E5300F074021217BB74FF124CAFFAA3E0FB74A9
:103E6300031214EE126D5B1265CC122F2CE9640160
:103E73006003023EF8E508125BB81253FF4480F872
:103E8300A3E0F974241217BBE8F0A3E9126537A382
:103E9300A3A3E0C0E074261217BBD0E0126B4DA3BE
:103EA300E05408601674241217BBA3E044011241C6
:103EB30001C0E074281217BBD0E0F012794635092F
:103EC300126E5960181279461264EDA3E0C8127C91
:103ED3006BE0F874121217BBE8F0A3E4F09084319E
:103EE30012122174041214EE74071214E6122B2A10
:103EF300740412145C850882850983A3A3A3A3A376
:103F0300A3A3A3A37406124101F9122ECC850A08B8
:103F1300850B09E50845097003023FEF7C0079042E
:103F2300AA08AB09122EEA8A0A8B0B850882850937
:103F330083A3A3A3A3E0F510A3E0F511E4F512F521
:103F430013780C79101216F04029E5082404F8E4DC
:103F53003509F9850C10850D1188828983C3E09595
:103F630010F0A3E0951112444AF8A3E0F9E8497070
:103F73009C800E850882850983A3A3A3A3E4F0A3F1
:103F8300F0850882850983A3A3A3A3A3A3A3A3A363
:103F9300A3E06401850882850983A3A3A3A3A3A344
:103FA300702BE054046003023E4385088285098335
:103FB300A3A3A3A3A3A3A3A3A37406F07AB785081B
:103FC30082850983124236122E60023F10A3A3A3F7
:103FD300A3E06003023E43850882850983A3A3A36C
:103FE300A3A3A3A3A3A37401F0023F10122EBA7CD0
:103FF3000079017A007B00122EEA8B09EA450960F9
:104003000C7A207B0090172CE0F9122164850C0AAE
:10401300850D0B7C0079047A007B00122EEAEA4BB3
:10402300701580538A828B83A3A3A3A31276F1E531
:104033000898E5099940078A828B8312582B7C00E4
:104043007904122EEA8B0DA90DEA4970D7C3E50A4C
:104053009508E50B95095013C3E508950AF508E59E
:1040630009950BF509E508450970167A207B009040
:10407300172CE0F91221649017311240FAA3F08053
:1040830037E50825E0F508E50933F509E4F50AF510
:104093000B78081214267A207B0090172CE0F91273
:1040A3002296740412145C1222B4EAF8EBF9ECFAC7
:1040B300EDFB90173112178CEE6420FAEF8027EF97
:1040C3005402600A123010EEFAEF64028018EF54C3
:1040D300046016126A0E79019016DF1265CE122B58
:1040E3003CEEFAEF6404FB80047A007B007429122F
:1040F300145C7F0C021118E4F0A3F0A3F022126504
:104103003BA3E022C082C08374EA1215247C167D8F
:10411300007900AA18AB1912211074081217BB7486
:1041230002F09016D5126D6C12414A74091217BB36
:10413300126C7A74131217BBE412695E1229C874E5
:104143001612145C0265AEE8F0A3E9F09016DF12D4
:10415300604B2274F7120E1074DA121524EAFEEB88
:10416300FFEE4F602DAC18AD19122F2C74061217E9
:10417300BBE0601E74171217BBE0FD74011217BB7E
:10418300E0FCEEFAEFFB7900122E24E9600479A437
:104193008002790074260257BD74F7120E10EAFEEE
:1041A300EBFF8E828F83A3A3A3A3A3A3E05440605A
:1041B300171276B51265CE122FBCE960067AFF7B23
:1041C300FF80151276B580039016D51265CE74FE66
:1041D3006A700374FF6B60471276B5127284122FF4
:1041E300BCE98E828F83600E125CF4125BB838F5E3
:1041F30083E4F0A38003127C96F07C547D2E8E82A0
:104203008F831265CE1229CEE9F5087015EE4F6043
:10421300097901EEFAEFFB122EC6A9080257C07501
:1042230008CDAA08124232122E60E960E080EB8EBC
:10423300828F83125CF8127C4EE0F92274F6120E20
:1042430010E9FEEAFF7A0F7B00122122EA4B601F7E
:104253008A828B83740CF0EEA3A3F0EF8A828B83A4
:1042630012559D90172CE0F912212E7900802FEE24
:10427300F9122EF08A088B09A808A909E849601CDD
:1042830088828983A3A3A3A3A3A3A3A3A3740612CE
:10429300794EE0F9122BCCEEF9122ECC791002698B
:1042A3001C74F4120E108A088B098C0A8D0B90165D
:1042B300E6E0640F702CEA4509450A450B6023903C
:1042C30016E1E064086005E06404701678081214CF
:1042D300267A017B0090172CE0F9122296740412BF
:1042E300145C02457674F4120E1074FC121524EA61
:1042F300FEEBFF8E828F83A3A3E0F9122EF08A08D0
:104303008B09EA450970030244258E828F83A3A893
:1043130082A983E0C0E0EA240B1264EAD0E01244ED
:104323004A64F160288E828F83A3E064CD601E8E81
:10433300828F83A3E0641A60148E828F83A3E06468
:10434300E9600A8E828F83A3E064E17036790012FC
:104353002EC6E9602EE5082404F50AE43509F50BB9
:10436300850882850983124436A3E0F9850A82858C
:104373000B831265CE1220D4850A82850B831272B9
:1043830084806E8E828F83A3E0C0E074021217BB19
:10439300D0E0124F58127CD8124F4AC0E074031277
:1043A30017BBD0E0F0E508240C1253FCAA18AB1994
:1043B3007005122B248003122FA474021217BBE082
:1043C30064E9702D850882850983124CC4750A013E
:1043D300780A121432750AE9780A1214321253F267
:1043E300124F3A1257FF1265CE122F627402121443
:1043F3005C850882850983A3A3A3A3A3A3A3A3A383
:10440300E064027012850882850983A3A3A3A3A392
:10441300A3A3A3A37406F08E828F83A3A3E0F91250
:104423002ECC122EBA901898124966122E66740476
:10443300024573A3A3A3A3A3A312444022E0FCA3B6
:10444300E0FD8E828F832212795EE02274F4120ED5
:1044530010EAFEEBFF7508008E828F83A3A3A3A34C
:10446300A3E060487508088E828F83A3A3A3A3A348
:10447300A3A3A3A31265CE79FF122CB68B0BEA4537
:104483000B601075082C8E828F83A3A3A3A3A3E0D4
:10449300D2E0F08E828F83A3A3A3A3A3E05403648B
:1044A30001600302456F43081102456FEE241812A1
:1044B3005AB46038EE241A125AB46003F47013121B
:1044C30075DB7003A3E069600302456F7508220280
:1044D300456FEE241B1274C3EE241A125AB4FAEE7B
:1044E3002419125AB4F9122BBA02456F8E828F83A4
:1044F300A3A3A3A3A3A3A3A3A31265CE122FBCE9D3
:10450300640270037508011275DB7003A3E0697020
:1045130006E508D2E1F508E50860158E828F83A3CE
:10452300A3E07006E508D2E58004E508D2E6F508C5
:104533008E828F83A3A3A3A3A3A3A3A3A31265CE56
:10454300122FBCE964017006E508D2E0F5088E82FB
:104553008F83A3A3E06015EE241D125912F9122FC5
:10456300AAE964016006E508C2E0F508A90880032A
:1045730012145C7F0402111874F0120E1074D71217
:104583001524EAFEEBFF8E828F83A3A3A3A3E0602F
:1045930011901896126E5B60099018961249661274
:1045A3002E6674031214EE8E828F83A3A3A3A31229
:1045B3004F2B1265CE122F2CE9700302471478019A
:1045C30074051217BBE0C39402400278007407120B
:1045D30017BBE0C3940240027800740C1217BBE0CF
:1045E30064F87003A3E0F47003024714740C121709
:1045F300BBE064F97003A3E0F47003024714740C86
:104603001217BBE064FA7003A3E0F47003024714CB
:10461300740C1217BBE064FB7003A3E0F470030295
:10462300471474061217BBE0F99016CFE0696003D4
:10463300024714E8A2E0400302471474271217BB91
:10464300E06003024714EE24131260417422121730
:10465300BB126B35241C12604174101217BB126C11
:104663007A74091217BBE0601F741A1217BBE0FDBE
:1046730074041217BBE0FC8E828F83A3A31265CE52
:104683007901122E24E9703D74031214E6122E727E
:10469300E9F50874091217BBE0702E9016C9E060A3
:1046A30028742255086422602074425508644270BD
:1046B3001474201217BB124972600E74201217BBB8
:1046C30012494F60047ACF804AE9A2E6504D742024
:1046D3001217BB12591824FD600F14600C24FD60DF
:1046E3000824FD600424FE702874201217BB1249AD
:1046F30048700E74201217BB1268C6A3E0640D60E5
:104703001A74031214E6122FD4E96401700D0249DE
:104713003B7AD37B001227BE02493BEE242DF58260
:10472300E43FF583124CA27003A3E069702275097C
:104733000078091214327809121432EE242F125A17
:10474300B4F91249561265C8122F62740212145C2E
:1047530074091217BBE070030247F712495612653A
:10476300C812303A8A0A8B0BEA450B70030248944D
:1047730074041217BBE0F88E828F83A3A3E028F89A
:10478300A3E03400F9E8240D124940F88A828B83B0
:10479300A3A3A3E068600EE88A828B83A3A3A3127A
:1047A30055961240FB7904E91217BB124F22E02AF7
:1047B300F8A3E034008882F583A3AA82AB83122195
:1047C300168A0C8B0D8C0E8D0F850A82850B83A3A5
:1047D300A3A3A3780C1213E9400302493B9084B5C9
:1047E300780C1215F1850A82850B83A3A3A3A37802
:1047F3000C12173D9016E1E064046008E064096060
:104803000302493BE508A2E540030248CEEE242F0C
:10481300125AB4851882851983F0EE2430125AB4E3
:10482300C0E074011217BBD0E0F0EE2431125AB489
:10483300C0E074021217BBD0E0F074141217BBE08F
:104843006401702C740E1217BB12540C2413125AE9
:10485300B4687003A3E0697017740C1217BB126578
:10486300CE122FBCE96402700774141217BBE4F074
:10487300EE2425F582E43FF5831212217404121409
:10488300EE74071214E6122B2A740412145C024904
:104893003B901726E0640160030247F77420121768
:1048A300BB1249727009E508A2E650030247F77488
:1048B300101217BBE0F47003A3E0F4607BEEFCEF8F
:1048C300FD74031214E6122E7E806DA2E650697405
:1048D300201217BB126D427016741A1217BBE064D4
:1048E30002705574031214E67900122F9E804974E6
:1048F300201217BB12494F7014741A1217BBE064CD
:1049030004703574031214E6122F92802B74201254
:1049130017BB124948700C790074031214E6122F66
:10492300E0801574201217BB1268C6E0640C70088F
:1049330074031214E6122FF87429025423F582E447
:1049430039F583E0221276BFE06403221276BFE0DA
:10495300640722EE242BF582E43FF5831274CDEE37
:10496300241322E0F508A3E0AA08FBE4FCFD2212CD
:10497300581B64062274F4120E10EAFEEBFF8C0837
:104983008D0990164CE0600F1275DB7003A3E0698C
:104993007005122BA8805A79008E828F83A3A3A35C
:1049A300A3A3A3A3A3A31265CE122BD88A828B83BE
:1049B300E58245836033A3A3A3A3A3A3E0541860B4
:1049C30028E508241C1264EA121225E508241312B0
:1049D30064EA121225EE2418125AB4F91265B512BC
:1049E3002BEA740412145C800879001265B5122B4B
:1049F300AE02457674F7120E1074F7121524EAFE10
:104A0300EBFF9016E1E06403600DE064016008E0F1
:104A130064096003024B0F8E828F83A3E06003025D
:104A23004AD57C007D007A027B001220CE1276FBF1
:104A33008A828B831260479016D2126C7A79531252
:104A430029B69016E1E0640960099016DF1265CE7D
:104A5300123034851882851983740112695E794294
:104A63001229B69016E17404F074011214E6794A1F
:104A73001229B074011214EE7AD77B161223CE904A
:104A83001882E0640B70057406F0800B79009016B1
:104A9300DF1265CE122B3C9016D21274C97A037BB7
:104AA300001220CE9016D51274C97A047B0012200E
:104AB300CE9016CCE0A2E35004D2F08002C2F012F2
:104AC300695479521229B6901892121780122E66E1
:104AD3008037FC7D007A037B101220CE901882E091
:104AE300640B7003740AF09018B8E4F0FA7B4090FA
:104AF300172CE0F91222A28E828F83124B161265B5
:104B0300CE122B3C9016E1E4F0122EA87409025742
:104B1300BDE0F8A3E0F99016DF22C082C0839016AF
:104B230071126E5B701F9016E1E014600924FC6043
:104B33000A14600C800F90167B8034901677802FB8
:104B4300901679802AE8496008901672124F3470E3
:104B53000C8A828B83A3E0F9122B30801D9016718F
:104B6300126D4864027005123004800E90175012C3
:104B73006E5B60061268C71235250265AE74F412C7
:104B83000E1074FE1215248A088B097A007B049098
:104B9300172CE0F91222A2AA18AB1979501229B0E6
:104BA3007A0F7B001221228A0A8B0BAE0AAF0BEE1F
:104BB3004F6020850882850983A3E070169016DF75
:104BC300E0F47003A3E0F4603B124C9C7003A3E099
:104BD300696031850882850983A374EA124F5012F4
:104BE30029B67AD57B16794B1229B67ADF7B1679EB
:104BF300501229B67AD47B1679E11229B6EE4F709A
:104C030003024C908E828F837402F09016DFE0F4DF
:104C13007003A3E0F4600A124C9C7003A3E0697074
:104C23004F851882851983124B14E8F0A3E9124FBC
:104C3300501229B09016D2125411126C7A7AD57B85
:104C430016794B1229B07AD47B1679E11229B07503
:104C53000A00780A121432780A1214329018771262
:104C63004B171251711265CE122F62740212145C2B
:104C7300850882850983124C95A3F09016E174038D
:104C8300F0EEFAEFFB90172CE0F912212E740202DA
:104C93004573A3E08E828F83228518828519831240
:104CA300604B9016DFE06822E8F0A3E9124CB322D0
:104CB300F0850882850983E022F582E43BF583E0F1
:104CC3002212604BE8FAE9FB2274F5120E1074D13C
:104CD3001215248A088B098A828B8312590A741C41
:104CE3001214EE8A828B83A3A3A3A3A3A3A3A31269
:104CF3004F3A1265CE122EAE741C1217BBE0702C05
:104D0300850882850983A3A3A3A3A3A3A3A3E0C3C5
:104D1300940B40188E828F83A3A3A3A3A3A3A3A35F
:104D2300E064027007126C66E0F46003024F1D90AA
:104D330016E1E064027003024E04E06406700302AD
:104D43004E04901671126E5B6008124F34700302AA
:104D53004E349016E1E064086008E06404600302E6
:104D63004F1D741E1217BB124F22A3A3A3A31259E4
:104D73000A901671E0F8496007126D4E640260777D
:104D83009016DFE06E7003A3E06F6003024F1D74A3
:104D9300016A601674231217BBAC82AD837AF37B6E
:104DA300161223C8E96003024F1D7A007B02901795
:104DB3002CE0F91222A8EA4B4C4D6003024F1D90E0
:104DC30016E21217A485188285198312178C901680
:104DD300E8E0C0E074041217BBD0E0F074051217CA
:104DE300BB7401F074061217BB740212695E122AB7
:104DF300EEE96003024F1AEEFAEFFB122FFE024FA9
:104E03001D901671126E5B702875080078081214D5
:104E1300327808121432EE2410F582E43FF583123F
:104E23004F2BA31244361265CE122F627402121452
:104E33005C8E828F8312604774071217BBE8F0A35E
:104E4300E912541712604774091217BB126B35121B
:104E53005FE0C0E0740B1217BBD0E0124F4AF508B5
:104E6300A3E0F509740F780812172E740C1217BB00
:104E7300E508F074201217BBE0C0E0740D1217BBF5
:104E8300D0E0F074221217BBE0C0E0740E1217BB1F
:104E9300D0E0F0741D1217BBE0C0E074101217BB12
:104EA300D0E0F0741E1217BBE0C0E0740F1217BB02
:104EB300D0E0F0EE2410125AB4C0E074111217BB04
:104EC300D0E0F074211217BBE0C0E074121217BBDC
:104ED300D0E0F0742E1217BBE0C0E074131217BBBE
:104EE300D0E0F074231217BBA982AA8389088A0928
:104EF300750A00780812142A7C087D0074171217AB
:104F0300BBAA82AB83122104740312145C740712CC
:104F130014E6122B368003122AF4742F02591CE074
:104F2300FA8E828F83A3A322E0F98E828F83A3A3B9
:104F330022126D4F640122E0F98A828B83A3A3A31B
:104F4300A3A3A3A3A3A322F0126C6AE022F07AD254
:104F53007B16795322124F5C22F0851882851983C0
:104F63002274F2120E1074F8121524EAFEEBFF8C71
:104F73000A8D0B890D9082D1AC18AD1974081213E8
:104F83006A750C00EEFCEFFDAA18AB191223C8E9F1
:104F93007003750C0190172D801AEEFCEFFDE508E8
:104FA300240BFAE43509FB1223C8E97023E508242E
:104FB300141264EA124FE96024E50CA2E040DB8599
:104FC3000882850983E0650A7004A3E0650B70DD40
:104FD300850882850983A3A3E0650D70D0AA08AB79
:104FE3000974080255B1125833E508450922C082F5
:104FF300C08390172D0265AB74F7120E1090172D16
:1050030012796C800C1270B912590D1221DCEEFA70
:10501300EFFBEA4B70EF90172DE4F0A3F00257C0BB
:1050230074F1120E10EAFEEBFF890A8C088D098ECB
:10503300828F83E08C828D8312600FAE82AF83E018
:1050430012635412655BC41263541250E2E012639C
:105053005B126559A2E2E4338C828D831265581387
:105063001313541F126354126557A2E7E4338C825F
:105073008D83A3A3A3A31250E28E0C8F0D750E0094
:10508300780C12142A7C087D00E5082407FAE4351D
:1050930009FB122104740312145CEE2408FE500170
:1050A3000F8E0C8F0D780C12142A7C037D00E508FB
:1050B300240FFAE43509FB122104740312145CE58E
:1050C3000AC3940F40118E828F83A3A3A3E0C0E091
:1050D3001264E6D0E080041264E6E4F00276F6A3FC
:1050E300A31260130EAF832274F5120E108A088B7D
:1050F300098A828B83A3AE82AF83E0F9122B548E8D
:10510300828F83E064EB6024850882850983A3E0B2
:1051130064E16018850882850983A3E064F1600C6B
:10512300850882850983A3E0641A7009850882854E
:105133000983A3E4F0901892121780122E66750A61
:1051430001780A121432850882850983A3E0F508E1
:10515300780812143279009016DF1251711265CE5D
:10516300122F62740212145C122EBA02591F1274A7
:10517300CD9016D522EAF0A3EBF00265AE74F612D9
:105183000E10901730E0701B7C0079017A007B00D1
:10519300122EEAEA4B600C8A828B83126E5B6003E9
:1051A300122E5A02691CC082C0837904122EE4E9CC
:1051B300F8903C48E493C398401079FF122EE4E939
:1051C300F8903C46E493C398500479018002790037
:1051D3000265AE74F0120E108A088B09890B750CE8
:1051E300008A828B83A3A3A3A3A3A3A3A3E0F9129F
:1051F3002EF08A0E8B0FAE0EAF0F750A01EE4F60C5
:10520300030252D0850882850983A3A3A3A3A3A382
:105213001274C9850882850983A3A3A3A3A3A3A3A7
:10522300A3E0F98508828509831265CE122ED88AF8
:105233000C8B0DAE0CAF0DEE4F70030253EB8E8251
:105243008F83A3A3A3A3E4F0A3F0E508240CFAE45B
:105253003509FB8A828B83E0C0E01253F2D0E0F081
:10526300E508240D125405240D126C74122FC2EE9E
:10527300240F12727EE50824111254052411126CB6
:1052830074E50824131253FCC0E0126B1ED0E0F047
:10529300750C01EE2406125FD4547FF0A3E054FC96
:1052A30012444A540460030253459018A4E0F508DD
:1052B300750900740778081216638E828F83A3A37F
:1052C300A3A3A3A3E04508F0A3E04509F08E828FD2
:1052D30083A3A312582B7407780812172EE50854DA
:1052E30007FCE50B606C8E828F83A3A3A3A3A3A308
:1052F300A3A3A3740212655C1256D6600B9016CD5D
:10530300125411A3A3126C7AEC70030253B9EE2466
:1053130006127C57547FF508A3E054FCF509EC24EE
:10532300FFF50EE434FFF50F7407780E121663E5EC
:1053330008450EF8E509450FF98A828B83126C7ACA
:1053430080748E828F83A3A3A3A3A3A3E0448002CC
:1053530052CFEC7005750A00805C8E828F83A3A305
:10536300A3A3A3A3E05420600C12211CEA547F7969
:1053730000245F80198E828F83A3A3A3A3A3A3E03A
:105383005410601A12211CEA540F7900240A5001A8
:10539300098E828F83A3A3A3A3F0A3E9800D8E823A
:1053A3008F83A3A3A3A37401F0A3E412541774047B
:1053B300125659122164E50CA2E0502F8E828F837E
:1053C300A3A3A3A312703FE0F9EEFAEFFB122EDEC4
:1053D300E96018126E526009EE240F1265C812219B
:1053E300DCEEFAEFFB1221DC750A00A90A8034EE29
:1053F300240CF582E43FF58322F582E43509F58335
:10540300E022F582E43509F58312604BEE22127730
:105413001FA3A32212541B22126297A3A3A3A322A6
:1054230012145C7F0802111874F4120E1074F71230
:1054330015247E00122EF0EA4B70030254F18A8287
:105443008B83A3A3A3A3A3A3A3A3A3E064066003E3
:105453000254F18A828B83A3A3A3A3A3A3A3E0FF94
:105463008A828B83127C7BE0C0E074081217BBD066
:10547300E0125812F8A3E0F9851882851983126C9B
:105483007A122F02EF5408606385188285198312FC
:1054930074C97A007B00122ED28B0BEA450B704C39
:1054A300127CCA1229E07C007D007A007B008028F0
:1054B3008E828F83125918F47003A3E0F4602D9049
:1054C30016DF12443C1265CE1229DAE9641A601C15
:1054D3007C007D00EEFAEFFB122ED28A0A8B0BAE14
:1054E3000AAF0BEE4F70C979001229E67E01EEF97F
:1054F3007409024573C082C083EA4B700590173567
:1055030080068A828B83A3A312570E60208A828B24
:1055130083A3A3A3A3A3A3A3E0540860E5EC4D6076
:10552300101257157003A3E06D70D780047A007BC7
:10553300000265AE74F2120E10EAFEEBFF890A8CCC
:10554300088D097A147B001221D6EA4B603A8A82CD
:105553008B83A3A3A3A3A3A3A3A3A3E4125807A387
:10556300E50A1276C6A3127CD61255961258251256
:10557300559D8A828B831276E3EA1279483BF58341
:10558300E4F012558DF0A3F08027A3F08A828B8379
:10559300A3A3221276DAE4F0A322A3F01255A83BC8
:1055A300F583E4F022EA12694322A90A7403121470
:1055B3005C7F0602111874F4120E10EAFEEBFF89E9
:1055C300088C0A8D0BEE4F70030256547401650864
:1055D30070127901122EE4E9F8903C4EE493C398DB
:1055E300502280167404650870147904122EE4E9BD
:1055F300F8903C48E493C398500A7911805574029B
:105603006508704D8E828F83A3A3A3A3A3A3A3A333
:10561300A3E50812600FA312731DE4F0A3F0901723
:1056230035126E5B601A8003E0F8A3E0F988828983
:1056330083A3A312570E88828983A3A370EA8003EE
:10564300901735EEF0A3EF125659122164790080BA
:105653000279C1024576F07A207B0090172CE0F99D
:1056630022C082C083E9F87900901735801D8A82B1
:105673008B83A3A3A3A3A3A3A3A3A3E0686005743D
:10568300FF687001098A828B83A3A312570E70DE11
:105693000265AE74F7120E10EA4B70059017358051
:1056A300068A828B83A3A312570E60208A828B8380
:1056B300A3A3A3A3A3A3A3A3A3E06970E4EC601033
:1056C3008A828B83E01256D670D780047A007B00DF
:1056D3000257C0F8A3E0C8127CA2E0540422C0829F
:1056E300C08390173580068A828B83A3A312570E3B
:1056F30060128A828B83A3A3A3A3A3A3A3A3E069BA
:1057030070E580047A007B000265AE12796CFBEAD7
:105713004B221258176C2274F2120E108A0A8B0B4A
:105723008C0C8D0D750800750900EA450B603090EF
:10573300173580068E828F83A3A312590DEE4F6017
:105743001EAC0CAD0DEEFAEFFB850A82850B8312BE
:105753003525E9640170DDEEF8EFF988088909AAB7
:1057630008AB090255B474F7120E10901735126086
:10577300477C007D00800DE8FCE9FD88828983A3D6
:10578300A3126047E8496030EA687002EB6970E78A
:105793009017351265CEE86A7002E96B88828983B7
:1057A300A3A3700812604790173580091260478CD5
:1057B300828D83A3A3126C7A800312145C7F01028F
:1057C300111874F7120E10EAFEEBFFEE4F602B1266
:1057D3002EFC12583B1265CC1221DC8E828F831271
:1057E30065CE1221DC126E526009EE240F1265C8D9
:1057F3001221DCEEFAEFFB1221DC80C11274CD8A98
:10580300828B832212580B221276DEA3A3A322F0EB
:10581300125817228A828B83E0F8A3E0F5838882EB
:10582300E02212580BA3A322A3A3A3A3125833224B
:10583300E0F508A3E0F509228E828F83125CF8124B
:105843005CEE3822C082C083EAFCEBFDEC4D6017AE
:10585300EC24FBF582ED34FF126E5970071258A148
:10586300E0F460071221287905803090172CE0C0FE
:10587300E01258A1D0E0F0903C53E493F97A377BDF
:105883001712215EE9640170107A007B2090172CB7
:10589300E0F91221647900800279040265AEEC24F8
:1058A300FFF582ED34FFF5832274F4120E10A2AFDC
:1058B300E433F508C2AF90173712590DEE4F603A33
:1058C300EE24FBF582EF34FF126E597A007B2090B1
:1058D300172C6007E0F91221648005E0F912216AB0
:1058E300E4F50AF50B780A12142EEEFCEFFD7A3775
:1058F3007B17122158740212145CE508A2E092AFE0
:10590300EEFAEFFB024576A3A3A3127335FF22F54C
:1059130082E43FF58312581B2212145C7F030211A9
:105923001874F2120E1074FA121524EAFEEBFF75C6
:105933000AFE750BFF122EC0E960057911025AACFD
:10594300EE2415125AB460359018C2E0C43354E003
:10595300F8E0333354FC48C0E012625DD0E0127CBF
:10596300ABFAA3E0FB79FF122CB68B09EA45096079
:105973000C750AFF126B22126A08D2E0F08E828F36
:1059830083A3A31265CE122FBCE96006EE24121284
:10599300692BEE2413125AB4700D903C43E493C068
:1059A300E0126B1ED0E0F08E828F83E0A2E75004FA
:1059B30054038019EE2414125AB470129016BEE0E8
:1059C300C0E0125FCAD0E0F09016BEE004F0125AB5
:1059D300B1640170169018ADE0600D9016C9E070C7
:1059E3000A8E828F83E070031269288E828F83E090
:1059F30064017011EE240B12591264027007125ADB
:105A0300C8E04440F0AC18AD19EEFAEFFB122F26B4
:105A13008A088B0974FE650A700374FFF4700D8E97
:105A2300828F83A3A3E0F50AA3E0F50BEA4509609F
:105A3300748E828F83E0C0E074011217BBD0E0F054
:105A430074041217BB1276E3EE241E126041740233
:105A53001217BB126C7A74011214DE880C890D784C
:105A63000C12142EEE2420125ABC121432125AC8ED
:105A7300121225EE240E125ABC1214329016D212B0
:105A8300122574081217BBE0F9AC0AAD0B122F20D4
:105A9300740812145CE9FE74106E700BAA08AB094B
:105AA3001221DC80027E10EEF974060255B1EE2459
:105AB30011F582E43FF583E022F582E43FF583E0CC
:105AC300F50C780C22EE126B2A22C082C08374D7A5
:105AD3001215249081C974031214EE742612136AEA
:105AE3008A828B83A3A3A3A3126047740E1217BBEE
:105AF300E8F0A3E912558E126047740C1217BB121B
:105B03005BBE125BB8124CBFC0E0741A1217BBD055
