:020000040000FA
:060000000216E0020A34C2
:03001300020A5688
:03002B000214714B
:03003300020C7E3E
:03003B00020AAB0B
:0300530002096936
:03005B000211E3AC
:0300630002120482
:03006B00020C2460
:03007B00020C551F
:100083000209C8010020FD000201940500000001DF
:100093007C1C8E1C0000941C9A1C00000000A01CF9
:1000A300B81CBE1CC41C00000000000000000102BC
:1000B3000408102040800801FF0D01010401FEFF28
:1000C3000000000000000006FFFFFFFFFFFFFF012D
:1000D30001010400CA1A000000E8030000FFFF4208
:1000E3001BE803000064006400B801A0BB0D00A07E
:1000F300BB0D00020200F8FF0705021E0401051EE6
:1001030002051E020A0A01010808010310270280E2
:100113003E0102FEFFE8030A050001FFFF010A1486
:1001230001E0C503423F1A51123FF304B53F0000FB
:10013300803E010105030101FF0F10FEFF923C0009
:100143000000002A3C00000000FF000000FF00C088
:1001530082C083E9FA5407F8743B28F582E4341E1D
:10016300F583E0F87900EA1202F7600814600914D5
:10017300600D8012E5808002E5905870078007E5E6
:10018300A0586002790102025FC082C0831203900B
:10019300600814601214601C802BEA6005EB428037
:1001A3008023E85280801EEA6005EB42908016E8C7
:1001B30052908011EBC39420500BEA6005EB42A0F0
:1001C3008003E852A002025FC082C0831202FD7066
:1001D3000302025F1202F6600814602C1460508060
:1001E3007BE852F374016A601274026A6015740446
:1001F3006A7003EB428FEB42FD806153F7DFE852F5
:100203008F80F343F72080F6E852F474016A60129A
:1002130074026A601574046A7003EB42F6EB42FEE3
:10022300803A53F7BFE852F680F343F74080F6EB8A
:10023300C394205027E852F574016A601274026A6D
:10024300601574046A7003EB42F7EB42FF800D53B1
:10025300F77FE852F780F343F78080F6D083D082AC
:1002630022C082C0831202FD60791202F660081474
:10027300602B14604E806CE852F352FD74016A6087
:100283000F74026A600F74046A7058EB428F8053D4
:1002930053F7DF800343F720E8528F8046E852F498
:1002A30052FE74016A600F74026A600F74046A700C
:1002B30032EB42F6802D53F7BF800343F740E852F9
:1002C300F68020EBC39420501AE844E0F852F5522C
:1002D300FF74016A601074026A601374046A700325
:1002E300EB42F702025F53F77FE852F780F543F7DB
:1002F3008080F6E9C4540F54032212039AEB22C000
:1003030082C0831202FD603A1202F6600814601282
:1003130014601C802DEA6005EB42FD8025E852FD48
:100323008020EA6005EB42FE8018E852FE8013EB62
:10033300C39420500DEA6005EB42FF800574E0484A
:1003430052FF02025FC082C08312039060081460F0
:10035300151460228034EA6005EB42808003E85282
:1003630080EB42FD8024EA6005EB42908003E85273
:1003730090EB42FE8014EBC39420500EEA6005EB31
:1003830042A08003E852A0EB42FF02025F12039AED
:10039300E9C4540F540322E95407FC743B2CF5823F
:1003A300E4341EF583E0FBF4F8221202F66007142E
:1003B3006013146020227801E8F4FBEA60201460E3
:1003C3002114601522740F59C394045004780280D9
:1003D300E7780480E3780880DFE58C586004EB520B
:1003E3008C22E8428C221216F0601D1216FF700553
:1003F300191919801A121581701F121559C3700328
:10040300E6673319191940071818182208080874E1
:10041300FFF618F618F618F6221215596017121778
:10042300A5702192F01217AE7019501720F014081E
:100433000808090909E7F61819E7F61819E7F6187D
:1004430019E7F6221217AE60E6E869701F0808E69E
:100453002480F608E436F618547FB47F0CE6548003
:100463006007F6E418F618F622181822E9C6CC0835
:10047300C6CD08C6CE08C6CFC0E0E8C0E0EAC0E0FB
:10048300EBC0E009E9F809E7FA09E7FBE6F918E642
:10049300F8C3EC98ED99EE9AEBC2E7F5F0EFC2E7FB
:1004A30095F0500E600CEBCFFBEACEFAE9CDF9E8FC
:1004B300CCF8EAA2E7D2E7FAEB33FB13F5F0EEA2AE
:1004C300E7D2E7FEEF33FFC5F013A2E730E601B34F
:1004D30013C5F0C3C0E0C0F07F00C39BFB605E9414
:1004E30018600F401D14601AD0E023F9D0E0F80221
:1004F30005CA8AF0E9486003D2F0E4AFF0FAF9F8EC
:10050300803BEB30E40D89F0EA6003D2F0E4AFF016
:10051300F9CAF8EB30E30D88F0EF6002D2F0AFF0E8
:10052300E4CAC9F8EB54076014FBC3EA13FAE913EE
:10053300F9E813F8EF135002D2E0FFDBEDD0E0C08F
:10054300E030E739C3E49FFFF5F0EC98FC42F0EDAF
:1005530099FD42F0EE9AFE42F0D0E0F9D0E0F8E5E2
:10056300F0607AE923F9EE20E742D8028067C3EF0F
:1005730033FFEC33FCED33FDEE33FE80EAEC28FC75
:10058300ED39FDEE3AFED0E023F9D0E0F8400280E9
:100593001BC3EE13FEED13FDEC13FCEF135002D25D
:1005A300E0FF08B800067F7F74FF802EEF335017FB
:1005B3008CF020F00260100CBC000C0DBD00080E86
:1005C300BE000408E860DFE933E813FFEE2313FEFF
:1005D3004F4D4C8008E95480FFE4FEFDFCEE33EF01
:1005E30033F47004FCFD7E80D0E0FBD0E0FAD0E071
:1005F300F8D0E0CFC618CEC618CDC618CCC6F9229F
:100603001216F07004181818221216FF700D74FFDA
:10061300F61819F61819F61819F622E7548066F633
:100623001217AE700F1217A570F014F608F608F63D
:1006330008F680D11217A5700CF608F60876800824
:10064300E6447F80EC12155C700C12158460BFE6E3
:100653005480F6E480BB121584700519191980A51E
:10066300E869700C763F18768018F618F6E8F922D8
:10067300E6CDC0E018ECC0E0E633CD33CDD313F6BE
:10068300E719FCE7191933CC33C3947F400ECD9D92
:10069300502408E65480F6E418F6800FF4043D1461
:1006A300501408E6447FF6187680E418F618F6D05E
:1006B300E0FCD0E0FD22CCD313CCFD18E4C6CBC0C4
:1006C300E018E4C6CAC0E00808ED08C633E613F62E
:1006D30018E433C675F003C3CA97CA09CB97CB197D
:1006E3009C40047D08802EBD00030207AC16B6FFB4
:1006F300050606081618C3CA33CACB33CB33CA2739
:10070300CA09CB37CB193CC37D08803E187D08202E
:10071300E75CC633C6CA33CACB33CB33DDF1D5F07E
:10072300EB30E77BCA97CA09CB974ACB199C406F3A
:100733004B7025E620E0218066187D08C3CA97CA5E
:1007430009CB97CB199CD3C633C6CA33CACB33CB99
:100753003350C9DDE7D5F0E1D3E4C636C608C63663
:10076300C608C636C608C636C61818188031C3CAA6
:1007730097CA09CB97CB199CB34097C633C6CA33E4
:10078300CACB33CB33DD34D5F02EC6A2E0C640C886
:10079300CA27CA09CB37194A70BECB3CB480B90803
:1007A30008E63308E633601F181818D0E0FAD0E0E3
:1007B300FBD0E0FCD0E0FD22187D08CA27CA09CB94
:1007C30037CB193CD3808013F618E4B67F11F618A3
:1007D300B6FF0EF618C60470D20808768080CAF6F3
:1007E30018F618F680C5001216F0604F1216FF6057
:1007F30012E7548066F612158170111217A5703B2B
:10080300090909F4F618F618F618F62212155970A4
:10081300151217AE08080860EAE6447FF6187680DA
:1008230018E4F618F6221217AE60161217A5701206
:10083300E4F608F608F608E65480F60909091818DC
:100843001822EAC0E0EBC0E0ECC0E0EDC0E0E687D0
:10085300F0A4FBACF008E687F0A42CFCE435F0FA36
:100863001809E687F0A42C4B60027401CA35F0FC2A
:10087300E433FB09E687F0D2F7A42CCB35F0FC195F
:1008830008E687F0A42BCC35F0FBE433FD0819E62A
:1008930087F0D2E7A42C4ACB35F0CD3400FC09E62F
:1008A30087F0D2E7A42DCC35F0FDE433FA0918E63E
:1008B30087F0D2F7A42CCD35F0CA3400FC08E687C4
:1008C300F0D2E7D2F7A42ACC35F07A7E20E70B0AE0
:1008D300CB33CBCD33CDCC33CC33CB3350147004AB
:1008E300ED30E00ED2F1E4CD3DCDCC3CCC3B500518
:1008F300DA05C2F1EB547FC63308E63392F0FBE727
:100903003309E733C39A502D2B70190C0D4C4D70DE
:10091300151806E608C333700D20F10AA2F013F68A
:10092300E418800B4024E4F630F002768018F618C1
:10093300F618F68024D33B14501074FFA2F013F67C
:10094300187680E418F618F6800FA2F013F618E66E
:100953003303F618ECF618EDF6D0E0FDD0E0FCD04A
:10096300E0FBD0E0FA22C0E074F1120E7AA2AFE409
:1009730033F509D2AF85A708AFA1EF5508FE741070
:100983005E600612197075A1EF74085E6008121993
:100993007675A1F78024EFA2E092F0E508A2E08249
:1009A300F05017906198E0F8900504E0C398A2D244
:1009B30065D0335002E8F075A1FEE509A2E092AFDD
:1009C3007F02020ED9C0E074F2120E7AA2AFE433B2
:1009D300FED2AF9061A4E0F8759B00E591585408EE
:1009E30060087591F71219BE8023E5915854106081
:1009F300087591EF1219C48014E591A2E092F0E812
:100A0300A2E082F05007E0C2E0F0121B0E9061A357
:100A1300E0F8E5E9585404600E121AE475E9FB9016
:100A23006193E0A2E640F2EEA2E092AF7F01020EF4
:100A3300D9C0E074F2120E7AA2AFE433FED2AF90C3
:100A430061A5E0F8E5BF585404600675BFFB121BAF
:100A53002680D4C0E0C0D0E8C0E0E9C0E0C082C0D6
:100A630083A8C1E8C0E09004B1E0F8743028F582AF
:100A7300E43404F583D0E0F09004B0E0F8A3E06838
:100A83007006E5959004B3F09004B1E004F0C394CC
:100A9300804002E4F0A374C6F0D083D082D0E0F9A2
:100AA300D0E0F8D0D0D0E032C0E0C0D0E8C0E0E978
:100AB300C0E0C082C0839004F4E0F8A3E06870084B
:100AC300539AFBA374018022C2E99004F4E0F87402
:100AD3000128F074B428F582E43404F583E0F5C109
:100AE3009004F4E0C394404002E4F080AC120B3B6A
:100AF30030F039120B808034120B3B20F01430E7B6
:100B03002B74FFFCFBFA747F8022E4FCFBFA7480F5
:100B1300801AB48008BC00F2BB00EF800F50EBF9E1
:100B2300E4C39AFAE49BFBE49CFCE499C6CC18C6A4
:100B3300CB18C6CA18C6F922E4C9C608CAC608CB68
:100B4300C6D3330308CCC63392F0C3947F402E94AC
:100B5300184019C9B90704CACBCC225025C309CA06
:100B630033CACB33CBCC33CC33D9F422F4600DC9A5
:100B7300CCC313CB13CBCA13CAD9F6CC22E4FCFBE8
:100B8300FA2214FCFBFA22C3E498F8E499F9120B55
:100B9300CB8026C3E49AFAE49BFBE920E7E9120B36
:100BA300CBE498F8E499F922C3E498F8E499F912AC
:100BB3000BCBE498F8E499F9C3E49AFAE49BFB229B
:100BC300EB20E7CFE920E7E0B90010BB0008E88A93
:100BD300F084F8AAF022E4FBC8FA22EB70227B101F
:100BE300C833C8C933C9335007C39AC3DBF280067D
:100BF3009A50012ADBEAC833F4C8C933F4C9FA228C
:100C030075F008E4C833C8C933C933C99AC99B50BE
:100C130004C92AC93BD5F0ECFBC833F4C8E4C9FACC
:100C230022C0E074F2120E7AA2AFE433FED2AF9088
:100C330006AEE05589600FE589FA7900121DDE9052
:100C430006AEE0F45289C2C5EEA2E092AF7F010284
:100C53000ED9C0E074F2120E7AA2AFE433FED2AF23
:100C63009006AFE0558A600FE58AFA7901121DDE1E
:100C73009006AFE0F4528AC2EB80CDC0E074F2126A
:100C83000E7AA2AFE433FED2AF9006B0E0558B608C
:100C93000FE58BFA7902121DDE9006B0E0F4528B59
:100CA300C2E880A4080808EAC0E0EBC0E086F0E7E9
:100CB300A4FA180986F0E7A42AFA180986F0E7A42B
:100CC3002AFA180986F0E7A42AFA1986F0E7A4FBA2
:100CD300E5F02AFA190886F0E7A42BFBE5F03AFAC7
:100CE300190886F0E7A42BFBE5F03AFA18180986F1
:100CF300F0E7A4C5F02BFBE43AFA1908E7C5F0C600
:100D0300A426F6E5F03BFBE43AFA1886F0E7A4F6EE
:100D1300E5F00826F6E43B08F6E43A08F6D0E0FBF3
:100D2300D0E0FA22080808E630E7111215BD120DCB
:100D33003F080808C64480C618181822181818E96E
:100D4300799EC608CAC608CBC608CCC6C37020792C
:100D530096CACBCC7019798ECBCC70137986CC70B4
:100D63000EF9802ACA33CACB33CBCC33CC331930F8
:100D7300E7F2CCCBCA3350147004EA30E00DE4CA76
:100D83003ACACB3BCBCC3CCC500209C3E913C6CC0B
:100D9300182313C6CB18C6CA18C6F922E4CFC0E07D
:100DA300E4CEC0E0E4CDC0E0E4CCC0E075F020E6E2
:100DB30026F608E633F608E633F608E633F618189F
:100DC30018EC33FCED33FDEE33FEEF33FFC3EC974A
:100DD30009ED9709EE9709EF97191919400FFFECE1
:100DE30097FC09ED97FD09EE97FE191906D5F0BF9B
:100DF300ECF709EDF709EEF709EFF7191919D0E048
:100E0300FCD0E0FDD0E0FED0E0FF222518C582C073
:100E1300E0E51934FFC583C0E0E518C3958224F8E3
:100E230010AF088583198582188008858319858208
:100E330018D2AFCEF0A3E520F0A37808E608F0A31C
:100E4300DEFAEFF0A3E58124FAF8E608F0A3E6085A
:100E5300F0A3E608F0A30808E608F0A3E608F0A369
:100E630015811581D0E0FED0E0F81581158115813B
:100E7300E8C0E0EEC0E022C0D02518C582C0E0E59E
:100E83001934FFC583C0E0E518C3958224F310AF7E
:100E9300088583198582188008858319858218D26D
:100EA300AFC8F0A3E9F0A3EAF0A3EBF0A37908E756
:100EB30009F0A3D8FAECF0A3EDF0A3EEF0A3EFF062
:100EC300A3D0E0F0A3D0E0F0A3D0E0F0A3E520F0BE
:100ED300A3E5F0F0A322851983851882E0C0E0A37F
:100EE300E0F9A3E0FAA3E0FBA37808E0F608A3DFA8
:100EF300FAE0FCA3E0FDA3E0FEA3E0FFA3E0C0E073
:100F0300A3E0C0E0A3E0F5D0A3E0F520A3E0A3F5C0
:100F1300F010AF08858319858218800885831985A9
:100F23008218D2AFD082D083D0E0F8D0E03212154D
:100F3300C0181818120D9F12168F1919192212169C
:100F43008F191919080808E618181820E7E0120D78
:100F53009F1215C018181822090909E71919192031
:100F6300E7DC080808E618181820E703020D9F12AB
:100F730015C0181818120D9F1215C018181812163C
:100F83008F19191922121790B90003020FC7E490A1
:100F930003D97838791B8002F0A3D8FCD9FA7A10E8
:100FA3007B1E90008678CD79018015E493A3AD82F2
:100FB300AE838A828B83F0A3AA82AB838D828E83D6
:100FC300D8E9D9E77582207583C174071213E875D0
:100FD300823C75833874001213E8E4731E75F010B5
:100FE3008E1A8F1B85821F85831E85188285198320
:100FF300E0CEA3E0CF851F82851E83EBC9EAC8ED4F
:10100300CBECCAC3E833C8E933C9EA33CAEB33CB01
:10101300C3EA9EF51DEB9FF51CB35004AB1CAA1D40
:10102300EC33CCED33CDD5F0DAAE1AAF1B2212166A
:10103300F0601C1216FF60171217AE70071217A587
:101043007001D322C0D01217A57006D0D0B322C32B
:101053002233D0D0501430E0F6C3E7960809E79660
:101063000809E7960809E796B32220E0D5E6970832
:1010730009E6970809E6970809E697B322D083D0D3
:1010830082ECC0E0EDC0E0E493A3FCE493A3FDEDA8
:101093004C600D1211A4EC24FFFCED34FFFD80EF36
:1010A300E493A3FCE493A3FDED4C600D1212ABECAF
:1010B30024FFFCED34FFFD80EFD0E0FDD0E0FCE445
:1010C30093A3C0E0E493C0E0221216F0601B121653
:1010D300FF60161217AE70071217A5600CB322C07B
:1010E300D01217A57005D0D022C32233D0D050130D
:1010F30030E0EBC3E7960809E7960809E796080985
:10110300E7962220E0E4E6970809E6970809E697C0
:101113000809E69722D083D082E9C0E0E493A3C311
:1011230086F0C5F095F0F908E493A386F0C5F09531
:10113300F0700BE493A3C3994005E9048002A3E490
:1011430075F002A42582F582E5F03583F583D0E0BE
:10115300F9E493A3C0E0E493C0E0228519838518E2
:1011630082E0A3FEE0A3F5207808E0A3F608DFFA07
:10117300E0A3FFE0A3C0E0E0A3C0E0E0A3C0E0E0A1
:10118300A3C0E0E0A3C0E010AF08858218858319EF
:101193008008858218858319D2AFD083D082021349
:1011A300EEC0E0C3E49396087401939618400FE4ED
:1011B3009366700808740193661870007019A3A3EE
:1011C300C3E49396087401939618A3A3400DD0E04B
:1011D300D0E0D0E00210BCA3A3A3A3A3A3D0E0223A
:1011E300C0E074F2120E7AC2D9901E57E0C3940085
:1011F300A2D265D0334005E0F91221687F01020EC7
:10120300D9C0E074F2120E7AC2DC901E59E0F9C321
:101213009400A2D265D033400312216880DE7404A7
:10122300800474028000CCC0E0EDC0E0E518C39CEC
:10123300CCAD1950011D10AF068C188D1980068C8A
:10124300188D19D2AF12136AD0E0FDD0E0FC2274DE
:10125300028000CCC0E0EDC0E0E518C39CCCAD1922
:1012630050011D10AF068C188D1980068C188D192E
:10127300D2AF121326D0E0FDD0E0FC221216F060AC
:10128300251216FF60201217AE70030217A5080877
:1012930008E76670101819E766700A1819E7667090
:1012A300041819E76622F422C0E0C0F088F0E49342
:1012B3006670080874019366187000A8F0A3A37001
:1012C3000BD0F0D0E0D0E0D0E00210BCA3A3D0F06C
:1012D300D0E022D083D082CCC0E0E493A360061296
:1012E300138B1470FAE493A360061214EE1470FACD
:1012F300D0E0FCE493A3C0E0E493C0E022C008C3C1
:10130300E096F50808A3E096420808A3E096420891
:1013130008A3E0964208A2D265D033E5087001D352
:10132300D00822CAC0E0E493A3C582CCC582C5839A
:10133300CDC583F0A3C582CCC582C583CDC583DA71
:10134300E5D0E0CA22A2E792D65002F40430F706B1
:1013530063F0FF05F0B3400384800384F40430D6C4
:101363000563F0FF05F022CAC0E0E0A3C582CCC547
:1013730082C583CDC583F0A3C582CCC582C583CD89
:10138300C583DAE6D0E0CA22C0E0E493A3D39C503D
:1013930010E493A3C39C400AD0E0D0E0D0E0021253
:1013A300F3A3A3A3D0E0227009080808226016184B
:1013B3001818C6C333C608C633C608C633C608C61C
:1013C30033C6D5E0EA22C008C3E096F50808A3E0D7
:1013D30096420808A3E096420808A3E096450870E1
:1013E30001D3D00822C09FF59FE473D09F22D083FE
:1013F300D082C09FE493C0E0740193C0E074029371
:10140300F59F227404800A740380067402800274B8
:1014130001C0E0F40412143CD0E012173B2200C0D8
:10142300D0251810AF08F518500C05198008F518C9
:1014330050020519D2AFD0D0222518F58210AF087B
:10144300F518400C15198008F51840021519D2AF8C
:1014530085198322BB0102E722C082C08389828A65
:1014630083BB0003E08002E493D083D08222C0E0F8
:10147300C0D0E8C0E0A8A8D2AFC2C7E8A2E792AF45
:10148300D0E0F8D0D0D0E0326017080808C6A2E751
:1014930013C618C613C618C613C618C613C6D5E096
:1014A300E9226016080808C6C313C618C613C6186F
:1014B300C613C618C613C6D5E0EA22C3E0C696F61D
:1014C30008A3E0C696F608A3E0C696F608A3E0C60E
:1014D30096F6222518F8E43519F9222518FAE43589
:1014E30019FB222518FCE43519FD22C0E0E493A37F
:1014F3006C7009D0E0D0E0D0E00212F3A3A3D0E0F7
:1015030022251810AF08F518400C15198008F51896
:1015130040021519D2AF22E76670100809E766701A
:101523000A0809E76670040809E76622C3E096081B
:10153300A3E09608A3E09608A3E096A2D265D03371
:1015430022E066701008A3E066700A08A3E06670E4
:101553000408A3E06622191919E70947097009E786
:1015630027097005E733F4220922C3E096F008A3A4
:10157300E096F008A3E096F008A3E096F02218188E
:1015830018E60846087009E626087005E633F422D3
:101593000822C3E493960874019396087402939601
:1015A300087403939622C3E697F60809E697F608AC
:1015B30009E697F60809E697F622181818E4C39681
:1015C300F608E496F608E496F608E496F622E05662
:1015D300F008A3E056F008A3E056F008A3E056F0A5
:1015E30022E667F60809E667F60809E667F60809DA
:1015F300E667F622E493F608740193F608740293FF
:10160300F608740393F622E657F60809E657F60838
:1016130009E657F60809E657F622E627F60809E62B
:1016230037F60809E637F60809E637F622E026F624
:1016330008A3E036F608A3E036F608A3E036F62260
:10164300E026F008A3E036F008A3E036F008A3E0B4
:1016530036F022E647F60809E647F60809E647F6B4
:101663000809E647F622700422600D18C6C333C684
:1016730008C633C6D5E0F41822E056F608A3E056B0
:10168300F608A3E056F608A3E056F622E4C397F75C
:1016930009E497F709E497F709E497F722600D083F
:1016A300C6A2E713C618C613C6D5E0F322C6F4C60E
:1016B30008C6F4C608C6F4C608C6F4C622C3E09634
:1016C30008A3E09608A3E09608A3E09622C3E79652
:1016D3000809E7960809E7960809E7962275D000F6
:1016E30075813F7518D975190300020F88E60846FE
:1016F30008C3134608336002E633F422E7094709B7
:10170300C3134709336002E733F422600C08C6C3EE
:1017130013C618C613C6D5E0F422E6F008A3E6F014
:1017230008A3E6F008A3E6F022E0F608A3E0F60833
:10173300A3E0F608A3E0F622CAC0E0E6F0A308DAC5
:10174300FAD0E0FA22E0FCA3E0FDA3E0FEA3E0FF71
:1017530022EAF0A3EBF0A3ECF0A3EDF022E0FAA36E
:10176300E0FBA3E0FCA3E0FD22E8F0A3E9F0A3EA99
:10177300F0A3EBF022ECF0A3EDF0A3EEF0A3EFF077
:1017830022E0F8A3E0F9A3E0FAA3E0FB22E5C754C3
:10179300F84401F5C77901222518F582E43519F5D6
:1017A3008322E72719471947194722E626184618BF
:1017B30046184622C2AF75D69F020000221213F1CB
:1017C30005D8071213F11AD8071213F180D807129C
:1017D30013F121D5071213F1A4D5071213F10AD679
:1017E300071213F134BD071213F16FBD071213F182
:1017F300CBBD071213F123BE071213F1AABE0712C2
:1018030013F1E6BE071213F1E87F001213F1F87F1C
:10181300001213F16D99071213F1C399071213F113
:10182300129A071213F13F9A071213F1959A0712AE
:1018330013F135DB071213F14AB6071213F194B60D
:10184300071213F12AB7071213F1B0B7071213F1F6
:10185300E1B7071213F1F9B7071213F16DB80712C5
:1018630013F183B8071213F196B8071213F1A0B856
:10187300071213F1C9B3051213F115B9051213F1C8
:1018830047B9051213F173B9051213F11BBA051207
:1018930013F111BD051213F151E9051213F1B6E964
:1018A300051213F166EA051213F133EB051213F176
:1018B30089EC051213F173ED051213F17AEE05129B
:1018C30013F15AF0051213F18DF0051213F1F7F02D
:1018D300051213F11EF1051213F184F2051213F12F
:1018E30008F3051213F11CF3051213F192F3051219
:1018F30013F17CA4061213F1F7A5061213F116A730
:10190300061213F1EBA8061213F12DE8061213F1D8
:1019130059E8061213F1CAEA061213F10AEB06128A
:1019230013F14AEB061213F15EEB061213F177EB98
:10193300061213F168EC061213F10DED061213F102
:1019430021ED061213F16DCC071213F191CC07129E
:1019530013F1AACC071213F1DCCC071213F10CCD4F
:10196300071213F139CD071213F19BCD071213F1AF
:10197300AACD071213F1B4CD071213F1C1CD07128B
:1019830013F167FD051213F187FD051213F1C6FD6F
:10199300051213F1E1FD051213F100FE051213F117
:1019A30066FE051213F16FFE051213F1CCFE05124C
:1019B30013F1F0FE051213F1B1FF051213F1BEFF8F
:1019C300051213F1CFFF051213F124DA071213F1F5
:1019D3003CDA071213F168DA071213F14280071297
:1019E30013F19C81071213F1AA81071213F1BD8130
:1019F300071213F1D281071213F1E781071213F1D2
:101A0300FA81071213F16E82071213F1D3820712C0
:101A130013F17583071213F13984071213F1498403
:101A2300071213F15884071213F13BFF031213F14A
:101A33005FFF031213F187FF031213F1AFFF0312CA
:101A430013F111BB071213F138BB071213F156BB85
:101A5300071213F1C9BB071213F1ECB0071213F10C
:101A630005B1071213F111B1071213F125B10712D2
:101A730013F143B1071213F14DB1071213F157B12B
:101A8300071213F16AB1071213F1F0B1071213F140
:101A930065B2071213F194B2071213F1E2B20712FF
:101AA30013F131B3071213F14CB3071213F156B309
:101AB300071213F167B3071213F1AAB3071213F155
:101AC300D9D9071213F19589061213F1BF890612AA
:101AD30013F1DC89061213F1EF89061213F1058A5B
:101AE300061213F1638A061213F19B8A061213F18D
:101AF3008F8E061213F1D48F061213F1079006127C
:101B030013F16A90061213F1CA91061213F1F291BE
:101B1300061213F10792061213F11792061213F12C
:101B23005B92061213F1B692061213F1C6920612D5
:101B330013F1CBFE011213F1E5FE011213F10DFFB8
:101B4300011213F126FF011213F14AFF011213F1DF
:101B530068FF011213F17FFF011213F1ADFF0112B0
:101B630013F1C8FF011213F1AFDA071213F1E1A069
:101B7300071213F1F1A0071213F1F6A1071213F1E3
:101B830028A2071213F14EA2071213F171A2071232
:101B930013F188A2071213F1C2A2071213F127A3AC
:101BA300071213F169A3071213F1A8A3071213F184
:101BB300D9A3071213F110A4071213F198B906124F
:101BC30013F16EBA061213F199BA061213F1B6BAEB
:101BD300061213F1B1BB061213F1F3BB061213F194
:101BE30061BC061213F1B3BC061213F122BD061237
:101BF30013F159BE061213F156BF061213F1438DAA
:101C0300071213F1988D071213F1188E071213F1AF
:101C13002B8E071213F1528E071213F1F58E071252
:101C230013F1D68F071213F144F7021213F16FF772
:101C3300021213F13AF8021213F177F8021213F1B8
:101C430008F9021213F181FC021213F139FE021298
:101C530013F136C8041213F176C8041213F177CACC
:101C6300041213F177CD041213F199CE041213F178
:101C730003D2041213F177D2041213F111D3041215
:101C830013F168D3041213F1D0D3041213F120D447
:101C9300041213F14ED4041213F151D4041213F1AC
:101CA30061D4041213F174D4041213F1BFD40412D7
:101CB30013F17CD6041213F1E1D6041213F134D7D5
:101CC300041213F1D0D7041213F15CD8041213F1E8
:101CD3005BDA041213F104DC041213F1CBDD0412FA
:101CE30013F1B7DE041213F163E0041213F16DD0A4
:101CF300071213F187D0071213F1C9D0071213F19A
:101D0300F7D0071213F111D1071213F12AD10712D9
:101D130013F15DD1071213F181D1071213F17AD2B6
:101D2300061213F1ABD2061213F1FFD2061213F10E
:101D3300CFD3061213F101D4061213F12ED40612D7
:101D430013F17FD4061213F1A9D4061213F1CDD4E3
:101D5300061213F1F3D4061213F175D5061213F11B
:101D6300FFD5061213F130D6061213F176D60612FA
:101D730013F194D6061213F1B8D6061213F1D8D67E
:101D8300061213F10ED7061213F16DD7061213F1D3
:101D93008FD7061213F1EED7061213F1FDD70612F1
:101DA30013F136D8061213F1269C061213F1609C28
:101DB300061213F19F9D061213F1CB9E061213F127
:101DC30055A4061213F120F2061213F1D9F20612EA
:101DD30013F11AF3061213F189F3061213F11AD44D
:101DE300071213F18BD4071213F1EDD4071213F179
:101DF30044D4051213F174D5051213F189D60512D3
:101E030013F1C9D7051213F123D8051213F161D8C1
:101E1300051213F16FD8051213F19FD8051213F1B0
:101E230030D9051213F18CDA051213F1B8DB051260
:101E330013F152DD051213F1C6DE051213F1C9A722
:101E4300071213F12BA8071213F164A8071213F159
:101E53005DAA071213F135ED061213F178ED0612A0
:101E630013F1AEED061213F1D5EE061213F169F07C
:101E7300061213F1CFF0061213F102F2061213F158
:101E8300ACF3051213F1BDF4051213F133F505128A
:101E930013F12CF6051213F178F6051213F1F3F989
:101EA300051213F1D3FA051213F128FB051213F1EE
:101EB3007DFB051213F15DFC051213F1A5C9071291
:101EC30013F1E2C9071213F111CA071213F125CA5C
:101ED300071213F19184071213F1A385071213F16B
:101EE3008686071213F1A786071213F1708707126C
:101EF30013F11288071213F14388071213F1C388F1
:101F0300071213F154C0061213F1B6C0061213F1EF
:101F130055C1061213F1E0C2061213F1DEC5061213
:101F230013F1F4C5061213F109CB071213F129CBF0
:101F3300071213F13DCC071213F140CC071213F132
:101F4300B4D1071213F1EAD1071213F104D2071225
:101F530013F146D2071213F156D2071213F1F0D23E
:101F6300071213F19DB2061213F1A7B2061213F171
:101F7300E1B2061213F14AB3061213F167B3061264
:101F830013F109B4061213F112B4061213F157B484
:101F9300061213F180B4061213F18DB4061213F175
:101FA300FEB4061213F189B5061213F1D7B5061262
:101FB30013F115B6061213F17AB6061213F19DB694
:101FC300061213F114B7061213F16BB7061213F1CD
:101FD300A6B7061213F1DBB7061213F1EDB706121B
:101FE30013F1FFB7061213F11EB8061213F127B847
:101FF300061213F1E2B8061213F12EB9061213F109
:102003006CB9061213F11CCF071213F15CD007123F
:1020130013F113DC071213F114AB071213F158ABCE
:10202300071213F1A0AB071213F186AD071213F1D8
:1020330015AE071213F18AD8071213F100800512A7
:1020430013F12481051213F15E81051213F1088344
:10205300051213F13283051213F1A785051213F14B
:10206300E785051213F17D87051213F11A8805120E
:1020730013F16C88051213F10F89051213F14789C7
:10208300051213F18989051213F1F88A051213F168
:10209300468C051213F1778E051213F1A58E0512E6
:1020A30013F1CC8E051213F1D58E051213F1258F82
:1020B300051213F1B78F051213F1E692051213F10E
:1020C3006993051213F1B6DB071213F1CCDB071288
:1020D30013F16D91071213F18391071213F12792F4
:1020E300071213F16692071213F18392071213F189
:1020F300B492071213F10193071213F134930712E9
:1021030013F16F93071213F16495071213F1B6C617
:10211300061213F15CC8061213F19DC9061213F1DE
:10212300B5C9061213F1EB88071213F1228A0712BD
:1021330013F1818B071213F121F7041213F144F801
:10214300041213F14BF9041213F1ABFA041213F155
:10215300CDFB041213F1A3FC041213F134BF0712D5
:1021630013F1E2BF071213F1B693051213F17B9437
:10217300051213F18694051213F13795051213F125
:102183009695051213F1A497051213F114980512ED
:1021930013F1199A051213F1529A051213F1019DC5
:1021A300051213F1299D051213F1AB9D051213F1CD
:1021B300269E051213F1B09F051213F13FA00512DD
:1021C30013F1BDA0051213F1CDA5051213F1747A15
:1021D300001213F19B7A001213F1F67C001213F133
:1021E3001D7D001213F1727D001213F1A47E001203
:1021F30013F1207F001213F1B5B3071213F1CDB31E
:10220300071213F118B5071213F11FB5071213F1D3
:1022130048B5071213F123D6071213F182D607121A
:1022230013F1C0D6071213F101D7071213F1DCDD46
:10223300061213F102DE061213F142DF061213F146
:1022430037E0061213F15EE0061213F1F7E006120F
:1022530013F14BE1061213F166E2061213F199CC66
:10226300061213F13BCD061213F15BCE061213F1E6
:10227300ADCF061213F161D1061213F1C4BE0512DC
:1022830013F118BF051213F142C0051213F16EC109
:10229300051213F15CC2051213F1F8C4051213F110
:1022A300AFC6051213F1FAC6051213F108C90512D8
:1022B30013F1559D071213F1A89D071213F12B9EDD
:1022C300071213F1AAA0071213F1CBCD071213F1D2
:1022D30045CE071213F160CE071213F100C30712A4
:1022E30013F115C4071213F17DC4071213F1D4C4FB
:1022F300071213F11FC5071213F16FC5071213F16C
:102303008AC5071213F117C8071213F172C807120F
:1023130013F16EC9071213F1B3B8071213F11CB905
:10232300071213F192B9071213F1BAB9071213F195
:1023330002D9071213F14CD9071213F145D806122B
:1023430013F1A2D8061213F180D9061213F1EFD9B3
:10235300061213F113DA061213F1FADA061213F165
:102363005ADB061213F10BDC061213F182DC0612A0
:1023730013F192DB071213F1A5DB071213F1FAD263
:10238300071213F109D3071213F169D3071213F1DB
:10239300D6DB071213F1DCDB071213F1E2DB0712C2
:1023A30013F10080041213F10C80041213F16E80F8
:1023B300041213F17880041213F10B81041213F148
:1023C3004781041213F10382041213F116820412DB
:1023D30013F16682041213F1F582041213F12B83B5
:1023E300041213F1AD83041213F15C85041213F18B
:1023F3003087041213F11688041213F1688904124A
:1024030013F1BE8B041213F1278D041213F1C48D43
:10241300041213F16C92041213F15A93041213F180
:10242300F893041213F12494041213F1C0940412C8
:1024330013F1D594041213F1F994041213F15F9577
:10244300041213F17C95041213F1A695041213F1EF
:102453002397041213F14497041213F1CA97041239
:1024630013F17098041213F1B798041213F12A9917
:10247300041213F1B699041213F11A9A041213F108
:102483007A9A041213F1109B041213F18B9B04121A
:1024930013F1BE9B041213F1209C041213F1829DCD
:1024A300041213F1F29D041213F1A19E041213F10D
:1024B300F79F041213F18FA0041213F1FBA004126F
:1024C30013F13EA3041213F1CAA4041213F1F5A4E9
:1024D300041213F1DBA6041213F171A8041213F111
:1024E3007AA9041213F1EFA5051213F1A6A605129A
:1024F30013F1ADA7051213F12BA8051213F16DA962
:10250300051213F18EA9051213F146AA051213F150
:10251300F1AA051213F1D1AE051213F1EDB00512B4
:1025230013F154B2051213F16BDA071213F1BDD68E
:10253300031213F118D7031213F1A2D7031213F1E5
:1025430013D9031213F1EBD9031213F1D4DA0312E3
:1025530013F1EBDA031213F13DDB031213F1A1DBE9
:10256300031213F1E2DB031213F1F5DB031213F190
:102573004BDC031213F1A4DC031213F1BCDC0312D2
:1025830013F149DF031213F1DEDF031213F108E045
:10259300031213F151E0031213F141E2031213F199
:1025A300ABE2031213F17FE3031213F1C2E303124D
:1025B30013F1DCE3031213F123E4031213F145E4F3
:1025C300031213F1EFE4031213F1E7E5031213F11E
:1025D30041E6031213F192E6031213F12AE8031200
:1025E30013F1A2EA031213F120EB031213F14DEBE3
:1025F300031213F1C0EB031213F1E3EB031213F114
:102603005DEC031213F128ED031213F165ED0312D0
:1026130013F1C7ED031213F188EE031213F18BEEDE
:10262300031213F195EE031213F19FEE031213F14C
:10263300B2EE031213F124EF031213F14DEF031261
:1026430013F160EF031213F18CEF031213F1B3EFE5
:10265300031213F1D7EF031213F112F0031213F164
:1026630084F0031213F1ACF0031213F1EDF0031233
:1026730013F122F1031213F142F1031213F17FF16B
:10268300031213F1B6F1031213F1B6F2031213F1AD
:10269300E9F3031213F1FFF3031213F179D90712CC
:1026A30013F191D9071213F1FB7F001213F19DABC4
:1026B300061213F1ECAB061213F18CAD061213F1F3
:1026C30047AF061213F189AF061213F172B0061267
:1026D30013F17CB1061213F19EB1061213F1E8B1A6
:1026E300061213F169B2061213F12ED8021213F176
:1026F30051D8021213F110F6031213F18DD90212FD
:1027030013F1E5D9021213F143DA021213F18FDA4E
:10271300021213F105DB021213F191DB021213F122
:1027230006DC021213F149DC021213F129E0021252
:1027330013F178E2021213F1ABE2021213F122E376
:10274300021213F153E6021213F1C8E6021213F157
:1027530053E8021213F160E9021213F176EA02124E
:1027630013F1ECEA021213F1B3EB021213F11CECB6
:10277300021213F11FEC021213F1FCEC021213F11B
:1027830038EE021213F1F3EF021213F1F5D7071229
:1027930013F191F2021213F121F3021213F175F402
:1027A300021213F197F5021213F1EEF5021213F16F
:1027B3008BF6021213F1AAE1041213F14AE2041296
:1027C30013F1B4E2041213F15BE3041213F1BAE35D
:1027D300041213F166E4041213F10FE7041213F168
:1027E30035E8041213F1B9E8041213F196EA04125E
:1027F30013F13BEB041213F1DEEB041213F13DEC86
:10280300041213F1F6EC041213F175EE041213F132
:1028130032F0041213F1B3F1041213F10DF30412A5
:1028230013F11DF4041213F1C3F4041213F1E2F5CE
:10283300041213F1B5AD041213F12DAE041213F10A
:1028430075AE041213F1B9AE041213F102AF041200
:1028530013F14CAF041213F181AF041213F1FFAF64
:10286300041213F159B0041213F1B2B1041213F1AB
:1028730031B2041213F148B3041213F16AB3041210
:1028830013F176B4041213F187B4041213F19FB455
:10289300041213F1BFB5041213F1DCB5041213F1E2
:1028A300AFB6041213F1D3B6041213F1EAB604124D
:1028B30013F10BB7041213F12DB7041213F11FB860
:1028C300041213F177B8041213F1EDB9041213F1E2
:1028D3004BBA041213F16ABA041213F19CBB04122B
:1028E30013F119BC041213F186BC041213F1C6BC14
:1028F300041213F128BD041213F1D8BD041213F10D
:10290300AABF041213F195C0041213F18FC104126C
:1029130013F195C2041213F1B1C3041213F1BFC32F
:10292300041213F198C4041213F138C5041213F1FD
:102933007CC5041213F191C5041213F1A2C604124B
:1029430013F145C7041213F19DC7041213F11EAE10
:10295300071213F157AF071213F114B0071213F153
:1029630078B0071213F17195071213F18F950712BF
:1029730013F1D395071213F1F995071213F11F966B
:10298300071213F13796071213F14F96071213F13B
:102993006796071213F1CA96071213F10C970712E1
:1029A30013F12E98071213F13798071213F1409879
:1029B300071213F14998071213F15398071213F1F1
:1029C3007498071213F18FFB061213F16FFF0612AF
:1029D30013F17DFF061213F182FF061213F18DC16D
:1029E300071213F195FF041213F1D4FF031213F12D
:1029F3008BC6071213F1F5DB071213F100800212E5
:102A030013F15780021213F1C380021213F14F81A5
:102A1300021213F10582021213F14D82021213F115
:102A23006682021213F18982021213F1AB8202123F
:102A330013F1E982021213F13883021213F1638353
:102A4300021213F1C183021213F16884021213F10B
:102A53001085021213F18C85021213F159860212AA
:102A630013F1A086021213F1EC86021213F174879C
:102A7300021213F1AD87021213F10388021213F14C
:102A83001F88021213F14E88021213F15A8A02129E
:102A930013F1888B021213F1B48B021213F1E88B3A
:102AA300021213F1098C021213F1188C021213F1A2
:102AB300238C021213F1D28C021213F1428D0212F3
:102AC30013F1CD8D021213F1D58D021213F1428E43
:102AD300021213F17E8E021213F1448F021213F1CC
:102AE3001790021213F16C90021213F10B91021260
:102AF30013F16591021213F1AA91021213F1439497
:102B0300021213F18695021213F17098021213F157
:102B13005499021213F1389A021213F1499A0212CC
:102B230013F1BB9A021213F1529B021213F1B79BDA
:102B3300021213F1A79C021213F1CC9C021213F19F
:102B4300EA9C021213F1069D021213F1799D0212FF
:102B530013F1889D021213F1109E021213F10D9FBF
:102B6300021213F11A9F021213F1239F021213F19F
:102B730005A1021213F127A2021213F137A20212C6
:102B830013F165A3021213F1E4A3021213F1FFA4DC
:102B9300021213F13BA5021213F115A7021213F14E
:102BA300D2AA021213F1E6AA021213F1F0AA021238
:102BB30013F1FAAA021213F104AB021213F11DABC3
:102BC300021213F127AB021213F194AB021213F1A9
:102BD3009FAB021213F1C7AB021213F1D2AB021275
:102BE30013F137AC021213F142AC021213F166ACCB
:102BF300021213F18AAC021213F1FCAC021213F1AC
:102C030045AD021213F161AD021213F1D2AD0212FE
:102C130013F11EAE021213F167AE021213F1A5AE49
:102C2300021213F126AF021213F1CDAF021213F108
:102C33009CB1021213F101B2021213F12FB302126B
:102C430013F155B3021213F19DB4021213F1D7B766
:102C5300021213F1D5B9021213F1A0BB021213F140
:102C630039BC021213F13ABE021213F1EFBE021283
:102C730013F128BF021213F18EBF021213F198BF92
:102C8300021213F1C1C1021213F100C3021213F1B4
:102C930057C3021213F102C4021213F1B2C5021296
:102CA30013F1FFC6021213F11FC7021213F174C707
:102CB300021213F175C8021213F19DC8021213F127
:102CC300FCC8021213F1F4C9021213F16BCA021207
:102CD30013F17ECB021213F1ECCB021213F1EBCC06
:102CE300021213F145CF021213F16ECF021213F148
:102CF300D4D0021213F156D2021213F1ADD2021242
:102D030013F15BD3021213F100D4021213F159D45D
:102D1300021213F117D5021213F1A9D5021213F1FE
:102D230008D6021213F14AD6021213F17BD602120D
:102D330013F1D2D7021213F10080031213F1328080
:102D4300031213F16B80031213F12982031213F19F
:102D5300FF82031213F15E83031213F174840312CF
:102D630013F1C084031213F14E87031213F1288A5F
:102D7300031213F16F8B031213F1078C031213F178
:102D8300138C031213F15C8C031213F19E8D031247
:102D930013F1948E031213F1BE8E031213F1148FE9
:102DA300031213F16D8F031213F1E08F031213F16A
:102DB3001692031213F19893031213F183940312DF
:102DC30013F1CD95031213F10598031213F1029B2E
:102DD300031213F1119B031213F1A59B031213F1B9
:102DE300509C031213F1939C031213F1DC9C031206
:102DF30013F12C9D031213F1909D031213F1029E04
:102E0300031213F11E9E031213F14D9E031213F1CD
:102E13008C9E031213F1879F031213F136A0031242
:102E230013F1B3A2031213F1E5A3031213F1BDA42B
:102E3300031213F13FA5031213F174A9031213F143
:102E4300A3A9031213F1FEA9031213F131AA03126A
:102E530013F1A9AA031213F1DCAA031213F13DAB78
:102E6300031213F18DAB031213F15AAC031213F1D6
:102E730013AD031213F1D7AD031213F151B00312C3
:102E830013F1B3B1031213F104B3031213F128B412
:102E9300031213F12BB4031213F15AB4031213F1F7
:102EA30052B6031213F111B7031213F140B7031211
:102EB30013F15EB8031213F126B9031213F1E4BA46
:102EC300031213F116BB031213F158BB031213F1D0
:102ED30057BC031213F1CABC031213F1F3BE03125E
:102EE30013F152BF031213F1A6BF031213F1D5C19D
:102EF300031213F1B8C2031213F174C3031213F1D3
:102F030088C3031213F19CC3031213F1C9C3031241
:102F130013F1F9C3031213F1B4C5031213F1C6C6B7
:102F2300031213F11BC7031213F164C7031213F146
:102F33008BC7031213F153C8031213F1F9C8031219
:102F430013F17FCA031213F1C6CA031213F138CB6C
:102F5300031213F18DCC031213F136CD031213F1C7
:102F63006ACD031213F182CD031213F125CE03129E
:102F730013F1A1D0031213F149D2031213F167D253
:102F8300031213F185D2031213F151D3031213F178
:102F93009FD6031213F1B884011213F1F0840112C6
:102FA30013F1F089011213F1368A011213F16C8BBC
:102FB300011213F1D18B011213F1468D011213F19A
:102FC3005090011213F17991011213F18C9B0112AC
:102FD30013F11C9C011213F1069F011213F113A0AC
:102FE300011213F176A0011213F1BEA1011213F124
:102FF3002CA4011213F1BEA5011213F14BA6011269
:1030030013F16AA7011213F1F7A7011213F101A833
:10301300011213F129A8011213F1C9A8011213F126
:10302300B4A9011213F181AA011213F19EAA01128C
:1030330013F1C7AA011213F1F4AA011213F13BAD64
:10304300011213F10AAE011213F149AE011213F189
:10305300CBAE011213F16CAF011213F19EAF01124B
:1030630013F1E5AF011213F118B0011213F15CB0C3
:10307300011213F1ABB0011213F1B0B0011213F14D
:103083000CB1011213F150B1011213F12AB2011262
:1030930013F18FB2011213F1F5B2011213F170B3F0
:1030A300011213F1D8B6011213F1DBB7011213F1B8
:1030B30059B9011213F16FBC011213F111BD0112C1
:1030C30013F15ABF011213F115C0011213F154C0C9
:1030D300011213F12CC2011213F149C2011213F1AF
:1030E30052C2011213F15BC2011213F166C2011243
:1030F30013F185C2011213F129C4011213F186C41D
:10310300011213F190C4011213F19AC4011213F1C5
:10311300F9C4011213F143C5011213F144C601129C
:1031230013F19BC6011213F1ACC7011213F1F5C7DA
:10313300011213F1AFC8011213F1C6C9011213F141
:103143009BCA011213F1E2CB011213F1E6CC011277
:1031530013F1DFCD011213F1F7CD011213F12ECECE
:10316300011213F138CE011213F142CE011213F101
:103173004DCE011213F16BCE011213F1B3CE011236
:1031830013F111CF011213F138CF011213F14ACF0A
:10319300011213F1FFCF011213F138D0011213F111
:1031A3005AD1011213F1ADD1011213F193D20112CD
:1031B30013F1BAD2011213F12AD3011213F1A6D3D8
:1031C300011213F102D5011213F129D6011213F1E1
:1031D300EBD6011213F1B9D7011213F177D801120B
:1031E30013F15FD9011213F109DA011213F171DA44
:1031F300011213F126DB011213F182DB011213F129
:10320300DADB011213F1A0DC011213F1C3DC0112AA
:1032130013F17EDD011213F1A0DD011213F101DEC2
:10322300011213F131E0011213F12AE1011213F13A
:10323300D6E1011213F1F7E3011213F140E4011295
:1032430013F18BE4011213F1E7E4011213F145E5E5
:10325300011213F169E5011213F18DE5011213F166
:10326300C2E5011213F1EAE5011213F12FE601128F
:1032730013F183E6011213F1DCE6011213F1D6E731
:10328300011213F174E9011213F1B9E9011213F1F7
:10329300E2E9011213F16BEA011213F1DEEA011202
:1032A30013F1ECEA011213F110EB011213F166EBC7
:1032B300011213F181EB011213F13CEC011213F132
:1032C30068EC011213F1ABEC011213F10EED0112D4
:1032D30013F11CEF011213F148EF011213F103F084
:1032E300011213F1E7F0011213F17BF1011213F153
:1032F300D1DE051213F109DF051213F12ADF0512DE
:1033030013F16CDF051213F1D0DF051213F1DADFCD
:10331300051213F1EADF051213F121E0051213F18F
:10332300CAE3051213F192E5051213F176E70512CC
:1033330013F118E8051213F1A2E8051213F1BB40CB
:10334300001213F16441001213F14342001213F10E
:103353004F43001213F16F43001213F19144001213
:1033630013F14146001213F1AE46001213F17F47E9
:10337300001213F18548001213F1FD48001213F1F6
:103383003849001213F19149001213F1CC4900128C
:1033930013F1154A001213F1A94A001213F13F4B1E
:1033A300001213F1144C001213F1E74C001213F145
:1033B300754D001213F19B4D001213F1C84D00120D
:1033C30013F1F94D001213F1C64E001213F1D64E4C
:1033D300001213F1294F001213F1364F001213F1AB
:1033E300434F001213F14C4F001213F1B04F001270
:1033F30013F10E50001213F15950001213F17450CF
:10340300001213F19B50001213F1B850001213F184
:10341300C450001213F15552001213F16E520012F0
:1034230013F1EA52001213F1FD52001213F10D537E
:10343300001213F1B153001213F11D55001213F1D1
:103443003056001213F1D056001213F1DA5600125F
:1034530013F15957001213F16A57001213F1A957C8
:10346300001213F1D757001213F1A458001213F1ED
:10347300FB58001213F13459001213F18A59001248
:1034830013F1A859001213F1F659001213F1C15A9E
:10349300001213F10F5B001213F15C5B001213F1C6
:1034A300DF5B001213F1095C001213F13F5C0012A1
:1034B30013F14E5C001213F1AD5C001213F1255DA4
:1034C300001213F1665D001213F1B65D001213F1E1
:1034D300E15D001213F1FB5D001213F1155E0012A2
:1034E30013F1EA5E001213F1F45E001213F12F5F81
:1034F300001213F13F5F001213F1905F001213F1FA
:10350300A45F001213F1C660001213F1DB60001216
:1035130013F16E61001213F1E261001213F187627D
:10352300001213F19262001213F1F563001213F10A
:103533001164001213F15D64001213F1CB640012E5
:1035430013F1FD64001213F11765001213F177658F
:10355300001213F11666001213F16166001213F1E3
:10356300B468001213F14C69001213F1C36900121D
:1035730013F1206C001213F1386C001213F13B6C41
:10358300001213F1476C001213F15B6C001213F17C
:10359300636C001213F19A6C001213F18E6D00121A
:1035A30013F1186E001213F19A6E001213F11A6FD1
:1035B300001213F1F16F001213F11370001213F1E3
:1035C300AC70001213F10971001213F10C710012A7
:1035D30013F17B71001213F1C772001213F1DA7346
:1035E300001213F16574001213F17875001213F1D0
:1035F3003F76001213F17076001213F196760012E3
:1036030013F19F76001213F1CE76001213F17E7739
:10361300001213F12E78001213F1A178001213F1A6
:103623004479001213F1B779001213F1F6790012FD
:1036330013F13F7A001213F110F5031213F131F471
:10364300031213F10EDB071213F1F3DA071213F16E
:103653006DDB071213F1A79A061213F141990612B3
:1036630013F1D798061213F17598061213F1FE960B
:10367300061213F1C795061213F1C894061213F13B
:10368300E9FF061213F1FBFF011213F17F940612F7
:1036930013F1F692061213F1DDD7071213F1D2D705
:1036A300071213F153F9061213F150F8061213F12E
:1036B300D8F7061213F1F8F6061213F1F2FD011210
:1036C30013F118FD011213F14EFC011213F1BDFAAF
:1036D300011213F186FA011213F158FA011213F1D0
:1036E3000CFA011213F175F9011213F1E5F8011245
:1036F30013F1BFF8011213F174F8011213F13EF83C
:10370300011213F1C1F7011213F15CF7011213F166
:103713000BF7011213F133F6011213F1A3F50112A2
:1037230013F157F5011213F1D2F4011213F18DF4D1
:10373300011213F171F4011213F119F3011213F1D0
:1037430034D7071213F1EBF2011213F123D7071247
:1037530013F15AA6071213F13EA6071213F1FAA4A6
:10376300071213F168A4071213F1EAFD031213F110
:10377300CDFC031213F1CEFB031213F1B8F20112C5
:1037830013F13CF2011213F16BE6061213F1D0E4CC
:10379300061213F118FB031213F1DEE3061213F101
:1037A3000CE3061213F1F9D3051213F1A0D305129A
:1037B30013F1C6F9031213F16BD3051213F19FF141
:1037C300021213F136D3051213F102D3051213F1CA
:1037D30095D2051213F17DD2051213F158D20512B9
:1037E30013F129CF051213F1FCCC051213F1FCCA16
:1037F300051213F182CA051213F133CA051213F12C
:10380300EDC9051213F18FC9051213F13D86061296
:1038130013F19085061213F1E4F6031213F1A18458
:10382300061213F10783061213F1C780061213F170
:103833000080061213F144D90200000080FB8F00C0
:103843000100DC1B87000100AA1E350004006E1E68
:1038530025000200721E26000200741E27000200CB
:10386300761E28000100801E29000100811E8400AD
:103873000400821E86000100861E2A000100871EA6
:103883002B000100881E2C0001008C1E2D00080057
:10389300C41B2E0001008D1E2F0001008E1E300060
:1038A30001008F1E31000100901E32000100CC1B6D
:1038B30033000100CD1B34000100911E36000100CE
:1038C300CE1B38000100921E390001008B1E8300BD
:1038D3000200A81E63000100D91B64000100891EB9
:1038E300650001008A1E6D000100DA1B71000800EB
:1038F300BC1B66000100A71E43000100981E440084
:103903000200991E450001009B1E460002009C1EFA
:1039130047000800D11B480001009E1E4B00010018
:103923009F1E04000100AB1EA1000100AE1E370064
:103933000100AD1E88000100AC1E3C000100CF1B3E
:103943003D000100931E49000200A01E6700010014
:10395300DB1B4D000200A21E4E000100A41E4F00FF
:103963000200A51E3E000100971E51000100941E97
:1039730052000100951E53000100961E54000100E1
:10398300D01B000000000000000000002001B584EF
:10399300000001002001B584000002002001B4846E
:1039A300000003002001B6840000040042016D8082
:1039B3000000050042017E80000006004201A08055
:1039C300000007002001AB800000100042018F803F
:1039D3000000110020016708000000404201A080A0
:1039E3000600000010110000070000003033000043
:1039F30007001000303300000700014020330000AF
:103A030007000240203300000800000020330000BC
:103A13000C005500393300000C001C004233000039
:103A2300120055002001000014000E004222000085
:103A33000004000021040000020400002904000027
:103A43000304000029040000050400002904000009
:103A530000013636010100010201000103010001EA
:103A63000401060605020000070100340801000FE7
:103A7300090401010D0100FF0E08000017020000F8
:103A8300190100FF1A0100011B0100FE1C010008BF
:103A93001D0200001F01000120010001210200009E
:103AA3002301000F24020000260100012701000862
:103AB300280200FF2A0100072B0102402C0100000D
:103AC3002D0100012E0100012F0100FF30010B1D0C
:103AD300310800003A0100083B01000F3C010001DE
:103AE3003D0100FF3E0400004204000046040000C4
:103AF3004A0400004E040000520400005604000073
:103B03005A040000000000010C38020C38030C3882
:103B1300040C3805C61D060000076A370862210039
:103B230000000A00000B56218CA4360D00000E0C79
:103B3300380F0C380000000000000000001376224C
:103B430000000015F81B16F81B97762298563619B5
:103B5300C8211AC8211B58229C04199D04191EF25E
:103B6300219F8837208A23215237224C1C23A436D5
:103B7300000000000000A63221270000A820212910
:103B830036232A9218AB56212C6C23AD6C232E00BE
:103B9300002F00003010220000003200003300002C
:103BA3003400003500003600003700003800006A9A
:103BB3000078001E2324232A236C00F000CA22D09D
:103BC30022D6226B00F000E222E8222A236600F0CC
:103BD30000E222E8222A2367001400F422FA2200DA
:103BE3002369001400062312230C23EE22E8038E1C
:103BF30022AC22A6226400010000000000C422635C
:103C030000010000000000C4226200010000000067
:103C130000C4226100010000000000C42270000102
:103C23000000000000C4220103710301030103012A
:103C33000301030103220302030103100300030032
:103C430003000300030003000300034203000324F3
:103C530003060300030003040312032503230325C0
:103C630003230304030403000300030003440300CA
:103C730003000323030003650321003503810300CD
:103C830003050300030003000300032503230303C9
:103C930000710030016000110070003102200350F8
:103CA30004800010006100000014006300730072C0
:103CB300006200430000001300060000000000043F
:103CC30000120000000000000000000400040037A0
:103CD3000037003C024400000000000000000065C3
:103CE3000000003500810000000500000083000093
:103CF3000001017101010101011101010131010102
:103D03000101018001100161013B00140063017393
:103D1300017201620143010001130106013D0135F6
:103D2300000401120100010001000100010401046B
:103D330001330133013C014401320136000001002B
:103D43000165010001350081010001050182018344
:103D530001000103047104020460041104700402ED
:103D63000402040104020410046104000414046343
:103D7300047304720462044304000413040604007D
:103D830004000404041204000400040004000451A9
:103D9300046400000400040004440400040004005C
:103DA3000400046504000435048104640005040070
:103DB30004830400040302710230016002110270E3
:103DC300020102020202028002100261023A004171
:103DD300006302730272026202430200021302389A
:103DE30000000200020402120200020002000200AC
:103DF3000204020402370037003C02440200023985
:103E03000000020002650200023502810200020581
:103E13000282028302000236000100060000000F46
:103E23000000000000000000000000000003FFFF8E
:103E330000000403FFFF0000FFFF0FF4010005C4AF
:103E4300040320000100000B00000000000000003C
:103E530003010F000000000000000000000000004C
:103E6300000000000000000000000000000000004F
:103E730000000000009224CE249824C0239E24D462
:103E8300249E24E024A424C0239E24D424AA24C052
:103E930023B024C023B624C023BC24C023C224C01F
:103EA30023C824C02300000000000000000000001D
:103EB30000000000000000000000000000000000FF
:103EC30000000000000000000000000000000000EF
:103ED300000000D427130080271F0086271F80BE01
:103EE300370100D4270200082703000E270400141B
:103EF3002705001A27060026273000442731003EF5
:103F030027320050273300562735005C27340062E0
:103F130027360068271100742714007A2715003804
:103F230027FFFF00000A0000000200000004000059
:103F33000008000000100000002000000040000006
:103F430000800000000001000000020000000400E7
:103F530000000800000010000000200000004000E6
:103F63000001D22F06FC2F08F62F0B143010EA2C79
:103F730002D82F05EA2F07DE2F0CBA2F0DC62F64A8
:103F8300E62AFF000007ECFDFDFDECDCDCCCBCAC5D
:103F9300AC9C9C8C7C7C6C6C5C5C5C4C4C3C3C2C8E
:103FA3002C1C1C03EAF5E5D5D5C5B5A595958585E6
:103FB3007575656555554545353525251515050033
:103FC300160F00000B150B020002220F3300000E28
:103FD3005A6967426565416C6C69616E6365303926
:103FE30001030507090B0D0F00020406080A0C0D57
:103FF3000001191618161618230300303017181964
:1040030021301B1D1F30303016181920231A1C1E97
:104013003000393D3F373C3C362C442D00034A49A0
:10402300434E181A2505020C0E020B040B0A07084F
:10403300000F02040201010101090200BE040AE8A3
:104043000300000E00E803000000007F00050304E6
:1040530004001E10030A0C10080C280800040903AE
:10406300010C0508151909FFE0041248EBA2E792B9
:10407300AF22E4F0A3F0A3F022A3124075A3F02231
:104083007F0C02115EE0F508E4F509F50AF50B2251
:104093007401F090051CE0640F2274091214217F4F
:1040A3000402115EA3A3E024F5C394132290053CFC
:1040B300126BDB7A147B0022C082C083901CF874DD
:1040C3009EF0A37433F0A374B0F0A37433F0901C88
:1040D300FC7486F0A37433F0A37480F0A37433F0FC
:1040E300A374BCF0A37433F0A374C2F0A37433F0CD
:1040F300A374B6F0A37433F0A3746EF0A37433F017
:10410300901D087492F0A37433F0A37498F0A37411
:1041130033F0A3748CF0A37433F0A374C8F0A374C6
:1041230033F0901D1912616860061263D212202ABF
:10413300901D161258947408F0A3E4F0A3F0901D98
:10414300B9F0901D1BF07C0BFDF97A1C7B1D121F2F
:10415300767C0B7D0079007A277B1D121F7602582F
:104163009D74F7120E0E74F7121504EAFEEBFF129C
:1041730056BB74051242317403F0EE2402FAE43F95
:1041830012420B242DFCE43FFD8C828D83124349A4
:1041930012421A6008124A9374FFF0A3F0EE242B24
:1041A300E43F1C1CFD8C828D83A3E0C0E08A828BDC
:1041B300831256CCD0E012421A88828983125EC4DD
:1041C30024031269A5122228740812179B7403F0A2
:1041D30090053112122574021214E67903EEFAEFF8
:1041E300FB12355A7402121421E9F5087007EEFA2E
:1041F300EFFB123440A9087409024AA3F582E43F95
:10420300F583127610125EB9FB8A828B83124229E0
:10421300E8F0A3E9F0EE22126BF9124229E8F0A3C9
:10422300E9127175E0221243148A828B8322F0A370
:10423300E4F012423922EE240DF582E43FF58322A5
:1042430074F1120E0EEAFEEBFF8C088D09890A1237
:10425300431E8A828B83124314740F12179B1243DB
:1042630037E824FF18E934FFF988828983E50A12C5
:1042730043299005361243269005351243267411BF
:1042830012179B124337EE2404FCE43FFD880B8A8C
:10429300828B83E0F50C8C828D83E0250CC3950B18
:1042A300126BF5E8F0A3E9125628A3A3A3A3A3A3D3
:1042B300A3A3E064037008125984F0A3E4800312FB
:1042C300462A1242347409F0750C1C750D1D750EC7
:1042D30000780C12140A12461E121F6A7403121479
:1042E30021750CFF750DFF780C12140EAC08AD0987
:1042F3007903EEFAEFFB12355A7402121421E9F531
:10430300087007EEFAEFFB123440A9087F07021189
:104313005EE024FFF8A3E034FFF922EE2402FAE47E
:104323003FFB2212434912432D22F0E824FF18E9F0
:1043330034FFF922E0F50CA312434912432D88827E
:104343008983E50CF022E08882898322C082C083BE
:10435300901D38E0C39408400474078001E08A820A
:104363008B83F033333354F8F902589D74F0120EF3
:104373000EEAFEEBFF890C8C0E8D0F750A00A2AFBF
:10438300E433F50BC2AF901D32803F1244575037D0
:1043930012446864037030EE24F9FEEF34FFFF85A6
:1043A3000882850983A3A3E02405FCA3E03400FD70
:1043B300EEFAEFFB122228EE24FF1EEF34FFFF7408
:1043C30010250AF50A150C1255F512760CE50C604A
:1043D30006E508450970B4E50BA2E092AFA2AFE48D
:1043E30033F50BC2AF901D32802C2402FAE4350959
:1043F300FB8A828B83126BE42406F582E438F5830F
:104403001244758A828B8312445DA3A312447505FB
:104413000A150C1255F512560A60221244686402FA
:1044230070F1124457E50840C1124758A2E550E322
:10443300850E82850F837401F0E50C70D6E50BA21F
:10444300E092AF8E828F83E50AF0EE24FFFAEF3419
:10445300FFFB8035124763A2E62212446122126FEA
:10446300D9A3A3A322850882850983126FD3126679
:104473000D22E08E828F83F0EE24FF1EEF34FFFFC8
:104483002212362674041214217F0802115E74EC82
:10449300120E0E74F512150489138A128B0F8518E8
:1044A30082851983E4F0041214DE123350E9F89084
:1044B300051BE0292434F508FA7B00121F888A0AB9
:1044C3008B0BAE0AAF0BEE4F7003024612EE2402C3
:1044D300F50AE43FF50BA808EE28F8E43FF9850A4E
:1044E30082850B831242132404F510E43FF51185F2
:1044F3001082F583E4F090051BE0FCF8C3E498F820
:1045030095E0F9850A82850B83E028F508A3E03955
:10451300F50990051912689D750E00780C12140A9E
:104523007D00AA08AB09121F6A7403121421AC1888
:10453300AD19740112179BE0F9E50824FFFAE509A8
:1045430034FFFB1233568A828B83E4F0EA24FFF5AF
:1045530008EB34FFF509E50FC454F0F9901DBAE0F8
:10456300C4333354C0F8900515E0A2E0E4331313C9
:104573004849440F124632E512C454F045138508E6
:1045830082850983F0A808850A82850B83E0FA8572
:104593001082851183E02AC398F0850A82850B83F4
:1045A300E8F0A3E509F012462A124234E4F0740A53
:1045B30012179BE4F075082775091DF50A78081290
:1045C300140A12461E121F6A7403121421851882DC
:1045D300851983E06009EE240E1257514408F01246
:1045E3003542E9F9E4F508F509780812140E740464
:1045F3001214E6EEFAEFFB12355A7402121421E993
:104603007006EEFAEFFB800BEEFAEFFB121F8E7AC9
:10461300007B00740B1214210240837C0B7D00EE9F
:104623002418FAE43FFB221256BFE4F0A322E085EC
:10463300088285098312463C22F01268712274F3C2
:10464300120E0E8A0A8B0BA2AFE433F50CC2AF75C0
:104653000800750900901D32802C12487F50248574
:104663000A82850B83A3A3127A398E828F83A3A335
:104673001263D5123548E9600A1246A5C2E6F08EE8
:10468300088F09124874124B2D70CFE50845096055
:104693000612475FD2E6F0E50CA2E092AF7F050277
:1046A300115E1246A92212688AE02274F0120E0EDD
:1046B300EAFEEBFF8C0C8D0D750E00A2AFE433F513
:1046C3000FC2AF750800750900901D328020850A5E
:1046D30008850B0912475FD2E4F0E508124758D268
:1046E300E7F0E50A24FBF582E50B34FFF583E0F5FB
:1046F3000AA3E0F50BE50A450B6043E50A1254E013
:10470300350BF583E0A2E750D9850A82850B83A395
:10471300A3121225AC0CAD0DEEFAEFFB12354E745D
:1047230002121421E960BBE508450960A1E50824EC
:104733000D12476B64017006124774D2E4F0E50F63
:10474300A2E092AFE5084509600612343A750E01FE
:10475300A90E02448C12550A12476E221247632295
:10476300E508241112476B22F582E43509F583E04D
:1047730022850882850983126FD3E02274F2120E18
:104783000E74FE121504750C00750D0085188285D4
:104793001983E4F0A3F0A2AF33F50AC2AF901D3240
:1047A300E0FEA3E0FF8035EE24FBF582EF34FF1239
:1047B300760A780C12140EEEFCEFFD7A327B1D1292
:1047C3001FBE7402121421EEFCEFFDAA18AB1912DE
:1047D3001FACAE08AF09901D38E014F0EE4F602710
:1047E30012487F501DEE240BF8E43FF98882898339
:1047F300E024FFF0A3E034FFF0888289831261682C
:1048030060A51248708099E50AA2E092AF901D3826
:10481300E0603190051CE0640F6006901DB9E07004
:10482300237A107B1D12363290849E1212217A1045
:104833007B1D1236267404121421800874F0125A58
:10484300BB12342EAA18AB19121FB28A0A8B0BAEF5
:104853000AAF0BEE4F60131233621246A5A2E28E2B
:10486300828F83A350D674E980D4024B358E0C8F8C
:104873000DEE24FBF582EF34FFF583221246A9A245
:10488300E72274F7120E0EEAFEEBFF1233621256A2
:10489300C9120FDDE96401900538700AE02401F8BC
:1048A300A3E034008004E0F8A3E0F9125D1712607E
:1048B300C0901D38E0702190051CE0640F70197AD8
:1048C300107B1D12363290849E1212217A107B1DAA
:1048D3001236267404121421A9A8C2AF901D38E021
:1048E300041248EBA2E7800DF0E9A2E7E433F8E90C
:1048F30022E508A2E092AF025B5774F7120E0EEAAC
:10490300FEEBFF124932F0123362EEFCEFFD7A3216
:104913007B1D121FB8A9A8C2AF901D3812406B901F
:10492300051CE0640F700579081234FA025B571214
:1049330046A9C2E42274F7120E0E74EA121504EAB1
:10494300FEEBFF900515E06040851882851983749E
:1049530001F012179BE4124A0A12179BAA82AB8337
:104963001222288E828F8312477AC0E0740A1217AC
:104973009BD0E0126C0A740B12179BAA82AB8312B2
:104983003572AA18AB191229C67416024AA374F712
:10499300120E0EEAFEEBFF123344E9F974DC696090
:1049A3001E74DD69601974E469601474F369600F3F
:1049B30074DE69600A74DF69600574DB697007EE91
:1049C300FAEFFB123500025B5774F7120E0E74EB0D
:1049D300121504EAFEEBFF8518828519837406120B
:1049E3004A0A12179BAA82AB83122228126C0F74F5
:1049F3000A12179BAA82AB83123572AA18AB19123B
:104A030029C67415024AA3F0EE2413FCE43FFD7497
:104A1300022274F7120E0E74F7121504EAFEEBFF6E
:104A2300EE242D12575160651252E2AA18AB1912E7
:104A33002228740812179B7403F090053112122573
:104A4300124A93121225900544E0F974041214E6F5
:104A5300EEFAEFFB12334A7404121421E9F974DC01
:104A630069602374DD69601E74E469601974F36915
:104A7300601474DE69600F74DF69600A74E869604A
:104A83000574DB697007EEFAEFFB1235000241FA99
:104A9300EE124A9822242BF582E43FF58322740315
:104AA300121421025B5774F2120E0E8A088B0975D9
:104AB3000C00750D00750AE7A2AFE433F50BC2AF26
:104AC300901D328003124870124B2D603512487FBF
:104AD30050F312574E640170ECEE242FF582E43F3D
:104AE300124CDCE06870DE780C12140EEEFCEFFD65
:104AF3007A327B1D121FBE7402121421901D38E0FE
:104B030014F0E50BA2E092AFEE4F6013EEFAEFFB69
:104B130012336279F0EEFAEFFB123500750A00A941
:104B23000AAA08AB09123500800DE0FEA3E0FFEEF0
:104B33004F2274021214217F0602115E74F4120EC6
:104B43000E74F7121504EAFEEBFF8E828F83A3E047
:104B530064F37003024BE98E828F83A3E064DF70FA
:104B630003024BE98E828F83A3E064E860788E8230
:104B73008F83A3E064DB606E1233A4E9F508705EF3
:104B8300EE240E1257516056124BF31233ECEA4BDC
:104B9300604C740812179B124BFD1212257508FF07
:104BA3007509FF780812140E8E828F83A3A3A3A323
:104BB300A3A3A3A3E0F974041214E612334A740402
:104BC300121421E9F50874F36508601274DF6508AF
:104BD300600C74E86508600674DB6508700F8E82EC
:104BE3008F83A3E508F0EEFAEFFB1233B002409D8A
:104BF300EE240FFAE43FFB79092274021273D27494
:104C0300FFF0A3124C0A22124C0E22125ECDA3A374
:104C13002274F5120E0E8A088B097E008A828B831A
:104C2300A3A3A3A3A3A31240A740027EE88A828B77
:104C330083A3A3A3A3A3A3A3A3A3A3E0C394104009
:104C4300047EE880138A828B83A3A3A3A3A3A3A3D5
:104C5300A3A3A3E0640F600A901D96E054087002BA
:104C63007EE8EA240BF582E43509124CDCA3A3A306
:104C7300A3A3A3A3A3E0C398500CEA240B12476B8E
:104C8300640F60027EE8900535E0F47003A3E0F45E
:104C930070027EEC7A237B00122024901D1912638C
:104CA300E5901D191261686029850882850983A32F
:104CB300A3A982AA8389088A09750A0078081214AD
:104CC3000A7C237D001263D2121F6A74031214211B
:104CD30080027E1AEEF9027573F583E0F88A828BFF
:104CE30083A3A32274F5120E0EEAFEEBFF8E828FCE
:104CF30083A3A3A3A3A3A3A3A3E090051C1272B54C
:104D030090053712729B9005171272BA901DBAF074
:104D1300F9121A6C901DBAE06018EE2404FAE43F0D
:104D2300FB7950121A54EE2406FAE43FFB79E112A0
:104D33001A54901DB91240936004740180027400E8
:104D4300901D1B1272A112140A7C0B7D007A1C7B2E
:104D53001D121F6A7403121421EE2418F508E43F90
:104D6300F509780812140A7C0B7D007A277B1D0253
:104D7300756B74F7120E0EEAFEEBFF8E828F83A320
:104D8300E070061263D21233AA8E828F83742C12C0
:104D93005ABB12350C025B5774F7120E0EEAFEEB88
:104DA300FF901D19126168600D1263D2901D19E402
:104DB300F0A3F012202A8E828F837408125ABB123A
:104DC30029C6025B5774F6120E0E901DB9E06013EC
:104DD300901D1BE0700D124DE912335CEA4B60032A
:104DE300123440026F15900517E0FB900537E0FA87
:104DF30090051CE0F92274F4120E0E74E7121504E8
:104E0300EAFEEBFF750B018E828F83A3A3A3A3A3FB
:104E1300A3A3E0A2E25068EE242BF582E43F127ACA
:104E230037124EB7123368E970559082CDE06401B2
:104E33007005750B008048124EBF12140A7C0B7D5F
:104E43000074111214DE121F6A7403121421123536
:104E530042E9FA740E1214D68808890978081214E4
:104E63000E750830750900780812140E124A931251
:104E73001225126BAB790112356074061214218569
:104E830018828519837410124A0A12179BAA82ABDF
:104E93008312221C124A93126BD7740B12179B12A4
:104EA30060C0740D12179BE50B12592E1229C6749C
:104EB3001902409FEE2413FAE43FFB22EE2408126A
:104EC30072A922C082C083901DBAE060031235B478
:104ED30002589DC082C083901DB174F8F0A3741C66
:104EE300F0A374FCF0A3741CF0A37408F0A3741D66
:104EF300F0901ED27456F0A3743DF0901D9B743E47
:104F0300F0A37433F0901D3D7474F0A37433F090E8
:104F13001D3F747AF0A37433F0901D96E044028031
:104F230001E4F002589DC082C083EAFCEBFD7903E3
:104F3300025F39C082C083EAFCEBFD7905025F3969
:104F4300C082C08379080270A6C082C08374FE1237
:104F53001504901D457428F0A37434F0901D477414
:104F630022F0A37434F0800D7A327B1D121FB2122B
:104F73005924123530901D3212616870EB901D3444
:104F8300126168600F7A347B1D121FB2125924120A
:104F9300353080E9901D32E4F0A3F0901D381240C3
:104FA3007674028002741112142102589D74F61251
:104FB3000E0EE9FF741429F582E43440F583E4937B
:104FC300FEFA7B00121F88EA4B6011EA2E1260B6CC
:104FD3008A828B83A3A3A3A3E4F0802C7A027B00B1
:104FE300121F88EA4B601D74FE2FF582E4343FF5EF
:104FF30083E4938A828B83F0A3741AF0901D91E06B
:10500300F9121F947A007B00026F15E9FC740629DC
:10501300F8EAA2E0501EE875F00A84E5F0F960149E
:10502300740A28C399F8E9C394054004740A28F85C
:10503300740B28F8ECC3941340047A1480027A06A4
:10504300EA2879002409F85001097A0A7B00120B37
:10505300C3E8F90213EEC082C083901D96E05402A8
:10506300600A1229CCE960047901800279000258B0
:105073009DC082C083901D96E054026016901D3837
:10508300E0700C126165600BE0C81256025004799F
:10509300018002790002589DC082C0839082CAE0D9
:1050A300F8901D3AE0C3985005121F8880047A00D7
:1050B3007B0002589DC082C08312353079000258AC
:1050C3009D74F7120E0E74FE12150485188285194D
:1050D30083EAF0A3EB125233A3A3A3A3A3E0600AD2
:1050E30014606024FE60690251B490051CE0640FF3
:1050F3006018123506E970128518828519831263C8
:10510300D5901D411256CC120FDD900544E0C0E04E
:10511300851882851983125E97D0E0125233741476
:105123001273CE127A397A347B1D121FACA8A8C22F
:10513300AF901D3AE0041263EB79201234FA740243
:10514300024AA3851882851983126FDB741580D0F8
:10515300851882851983125216A3A3E0605385181C
:1051630082851983E02402F8A3E03400F988828958
:105173008312780CE0C0E0851882851983E0FCA3D4
:10518300E0CC2406F582E43CF583D0E0126C17886A
:105193008289831263E58518828519831254FE85FB
:1051A3001882851983601312521B60051252234023
:1051B30043AA18AB19123530808412521B60F212C5
:1051C3005223501C125612FA8518828519831252E3
:1051D3001DF874341260B13440F583E4936A6014AB
:1051E30085188285198312521B640870C4125612E3
:1051F300640870BD1256121412523B240AC0E08593
:1052030018828519831256CCD0E012523B04025106
:1052130023E0F8A3125EE422E0F8A3E01252422254
:10522300851882851983126BE8125243C3940A22AC
:1052330012524DF58388822212524D12524222C8D5
:105243002406F582E438F583E0221273D2E0F8A352
:10525300E022C082C083901D491261686008126F0A
:10526300DC120FDD8002790002589D74F7120E0ED6
:10527300EAFEEBFF1242397401F0EE2430F582E4CA
:105283003FF5831269451242132432125751C0E08D
:10529300EE2413F582E43FF583D0E0F0EE243312DD
:1052A3005751C0E0EE2414F582E43FF583D0E0F0DB
:1052B300EE242CF582E43FF5831212251252E2EE1E
:1052C300242E125751F912355A7402121421E9F59A
:1052D300087007EEFAEFFB123440A908025B57EEA1
:1052E3002423FCE43FFD22C082C083123506E9601B
:1052F3000479208002790102589DC082C083EA129A
:1053030054E01253A1D2E0024F25C082C08312534E
:105313009B640170111253A6400C8A828B83A3E015
:10532300F9123500806FEA241012539EA2E6501240
:105333008A828B83A3E0F9901D431256CC120FDDB2
:10534300805312539B6401700D1253A650088A8236
:105353008B83743080368A828B83A3E0641B8A82BA
:105363008B83700474228024A3E0700D12539BF886
:1053730074091260B13440800B12539BF874FE120F
:1053830060B1343FF583E4938A828B83F0901D915F
:10539300E0F9121F9402589DEA240DF582E43BF5CF
:1053A30083E022EA12550A3BF583E0A2E32274F775
:1053B300120E0EE9FE12616570030254D7EE6011FE
:1053C300741B6E7013E0C81254DA64057003025440
:1053D300A2126FCBE40254A674E96E70621254F603
:1053E300700B1229D2E96005125510606279EE1232
:1053F30019D6901D3B1254F3901D3B603B1255137D
:10540300901D3B700B1254F314F0121B8C0254D7F3
:105413001254FEC2E712561E1254DA6403700C12C1
:105423006BE11254E0125248D2E2F079ED1219D630
:105433001254E6120FDD8075126FCE74E980647426
:10544300E16E703E1229D2E96055125510705090EA
:10545300053EE0C0E0126BE12412F582E438F583E7
:10546300D0E0F090052DE0C0E0901D3B12521412E5
:105473005214D0E0F090052DE004F07901121B7472
:105483008052741C6E7018901D3B1263D5901D4B97
:105493001256CC120FDD901D3BE4F0A3F0803512C1
:1054A3006FCBEEF0901D3B1263D512342E126BE1DD
:1054B300126BB3E054806010900544E0F9121A9027
:1054C300900543E0F9121A84901D3BE4F0A3F079B0
:1054D300101234FA025B57240D125245222411F59F
:1054E30082E422901D3B1263D9901D3F126FD52297
:1054F300E0F8A3E0C8241212524522E0F8A3E0C862
:1055030012550A125248222410F582E422901D3BC0
:10551300126BE8126BB7E054042274F4120E0E758A
:105523000A00750B00A2AFE433FFC2AF12616560DE
:10553300030255DA1256C9120FDDE94410F8901D23
:1055430032800985080A85090B1255F512560A702F
:10555300030255DA12475F586870E8780A12140E8E
:10556300AC08AD097A327B1D121FBE7402121421DE
:10557300901D3BE508F0A3E50912561E12560240A2
:105583005D901D39E014F0EFA2E092AF901D3BE077
:10559300240EF8A3E03400F9880889098882F5838A
:1055A3001263D5901D3B125618F91233F2E9901D80
:1055B30036F0125626E05480901D3B6026126BE4B1
:1055C3002413125245F9121A90126BE12414125249
:1055D30045F9121A848018EFA2E092AF8011901D52
:1055E3003880A11254FEA2E1B3E433F9121B740212
:1055F30040A2E50824FBF582E50934FFF583222464
:1056030011125245A2E722127610E50845092285B8
:105613001882851983124461A3E022F0901D3B1286
:105623006BE822A3E4F08508828509832274F712CC
:105633000E0EEAFEEBFF12352AEE2410125751A28A
:10564300E3400C12574E640170059082C8800390AA
:1056530082C9E0F9EEFCEFFD7A327B1D121FC4E92B
:105663006046EEFAEFFB901D451256CC120FDDEEAD
:10567300240E12575154047020A8A8C2AF901D39AC
:10568300E0041263CBFAE8A2E792AF1256BBA3E0A1
:105693005401702112343A801CEEFAEFFB901D3D49
:1056A3001256CC120FDD800D8E828F83A374F112FC
:1056B3005ABB12342E025B571256BF22EE240EF54C
:1056C30082E43FF58322901D47126FD522C082C02A
:1056D3008312343A02589D74F7120E0EEAFEEBFF62
:1056E3007900901D96E05402700CEE24301257514D
:1056F3005404600279E8901D96E05460700CEE2427
:10570300301257515402600279E88E828F83A3A32B
:10571300A3A3E0F89082CEE0C398500279E8EE2488
:105723002E125751700CEE242B125751700479F539
:10573300800BE9700512341CE9F9E96007EEFAEF12
:10574300FB123500025B5734FFF509EE240DF58299
:10575300E43FF583E022C082C0838A828B83740D89
:10576300F01229C602589DC082C0838A828B83E4CB
:10577300F0A3F0EA243012539E54049082C87012AE
:10578300E0F8901D39E0C398401279F11235000218
:10579300589DE0F8901D38E0C39850EE901D91E0BD
:1057A300F9121F9480E974F6120E0EE9FE244CFAE6
:1057B300E43400FB121F88EA4B6012EE8A828B836B
:1057C300A3A3A3A3F0EA244C1260B680047A007B5F
:1057D30000026F15C082C083901D4D7488F0A374BE
:1057E30034F0A374B8F0A37434F0A3748EF0A374EC
:1057F30034F0A37494F0A37434F0A374B2F0A374DC
:1058030034F0A374A6F0A37434F0A374A0F0A374CB
:1058130034F0A374BEF0A37434F0A374C4F0A3747F
:1058230034F0A374CAF0A37434F0A374D6F0A37451
:1058330034F0A3749AF0A37434F0A37482F0A374C5
:1058430034F0A3747CF0A37434F0901D6974ACF04D
:10585300A37434F0A374D0F0A37434F0A374EAF007
:10586300A37435F0A374DCF0A37434F0A374E2F0F2
:10587300A37434F0901D8DE4F0901D90F0901D7989
:105883001258947402F0901D821258947401024FBE
:105893002574FAF0A37434F0A322D083D0820213C8
:1058A300EE74F5120E0E74F1121504851882851923
:1058B300837402F0740112179BE9F060047AFF7B92
:1058C300FF740212179B1263E575088575091D7530
:1058D3000A00780812140A7C0B7D00740712179BC8
:1058E300AA82AB83121F6A7403121421AA18AB197C
:1058F3001229C6740F02757074F7120E0E74FD121E
:105903001504851882851983740AF0740112179B94
:10591300E9F0740212179BEA12592E1229C6024AA1
:10592300A1851882851983EAF0A3EBF0AA18AB19B5
:105933002274F6120E0E74F7121504EAFEEBFF1230
:1059430059841242317402125AACAA18AB191222AA
:105953001CEE242E1241FF24301269B212140E746D
:10596300021214E679831A1AEFFB12355A740212E3
:105973001421E9F5087007EEFAEFFB123440026FC9
:105983000E1256BF74012274F0120E0E12745912C5
:10599300172C7808790C120CA778081214067A7C55
:1059A3007B1D02448474F4120E0E74C61215049007
:1059B300051CE0640F6010851882851983742E120C
:1059C300592E12350C80277A737B1D123632124002
:1059D300B0120BCB88088909E4F50AF50B78081295
:1059E30014067A737B1D1236267404121421743A3A
:1059F30002409F74F5120E0EEAFEEBFF8E828F8338
:105A0300A3E0F86003025A95EE242D125751640265
:105A13006007E06403600278E8EE2423F582E43F44
:105A2300F5831240A9400478E8806AE87064EE24A4
:105A330023FAE43FFB79E1121A54EE242EFAE43FF1
:105A4300FB7950121A54EE242D1257516402700E32
:105A5300126BA1126BD790052B1260C080129005B8
:105A63002B74FEF0A304125AAC7A227B051222286F
:105A7300EE2418124EC212140A7C0B7D007A857B29
:105A83001D121F6A7403121421EEFAEFFB1234760F
:105A9300E9F8E86011E88E828F83A3126E0374170E
:105AA300125ABB12350C027573F0EE2425FCE43F49
:105AB300FD228E828F837429F0EEFAEFFB2274F6B7
:105AC300120E0E74F7121504901D90E0703B7401D2
:105AD300F0F9121B3EAA18AB1912353C75088575EF
:105AE300091D780812140E7508017509007808124B
:105AF300140E90053112122574061214E67A0379F6
:105B0300051235607406121421026F1074F7120E19
